:100000000C94B8060C94E0060C9407100C94E006CF
:100010000C94E0060C94E0060C94E0060C944A1351
:100020000C94E0060C94E0060C94E0060C94E006B8
:100030000C94E0060C94E0060C94E0060C94E006A8
:100040000C94250E0C94E0060C94E0060C94E0064B
:100050000C94E0060C94E0060C94E0060C94E00688
:100060000C94E0060C94E00630860A102060000331
:10007000070B090E0B030505060903050304080613
:1000800008080908080808080303090809080C0CEF
:1000900009090909080A0A03090C080C0A0A090ACD
:1000A0000A090B0A0C100C0B0905040508080309C2
:1000B0000909090906090903040A030D09090909BF
:1000C00006080609090F0B09070602060908FEFEC5
:1000D000FE1D1D1D1E1E1E001E1E1E000000000017
:1000E00000003030F0FE3E3030F0FE3E30061E1F85
:1000F0000706061E1F070606387CFEE6FFC6CE8CE6
:100100000C040C1C183F191F0F073C7E42427E3C1A
:100110008060108C82808000000000100C020100C2
:100120000F1F10101F0F00809CFEFEE6BE3E9C803D
:1001300080070F1F1918191F0F0F1F1D1E1E1E00ED
:100140000000E0F8FC1E020F3F7FF080021EFCF86A
:10015000E080F07F3F0F08683E3E68080000000026
:100160000000C0C0C0F8F8F8C0C0C00101010F0F06
:100170000F010101000000DC7C3C80808080800356
:10018000030303030000001C1C1C008078061807F2
:100190000000F8FCFE0606FEFCF8070F1F18181FEB
:1001A0000F07607038FEFEFE0000001F1F1F181CA6
:1001B0001E0686FEFC78181C1E1F1B191818081C2A
:1001C0001EC6C6FEFC38060E1E18181F0F0780C07C
:1001D000F0381CFEFEFE0003030303031F1F1F0372
:1001E000F0FEFE6666E6C686060E1E18181F0F078E
:1001F000F0FCFE4666EECE8C030F1F18181F0F078B
:1002000006060686E6F61E0600001C1F1F010000FB
:1002100038FCFEC6C6FEFC38070F1F18181F0F0754
:1002200078FCFE8686FEFCF0040C1D19181F0F03D7
:100230007070701C1C1C707070DC7C3CE0E0E0F0A6
:100240007070703838030303070707070E0E7070CD
:100250007070707070700707070707070707383856
:10026000707070F0E0E0E00E0E070707070303036D
:10027000181C9EC6E6FE7C3800001D1D1D000000F7
:10028000E018C4F43A0A0AF2FA7C08F00718272F9B
:1002900048484C4F4F2836110080E0F8FE1EFEF80B
:1002A000E08000001C1F0F07060606070F1F1C102A
:1002B000FEFEFEC6C6FEBC98001F1F1F1818181FA2
:1002C0000F07F0FCFC0E060E1E1C08030F1F1C1867
:1002D0001C1F0E06FEFEFE06060EFEFCF01F1F1F74
:1002E00018181C1F0F03FEFEFEC6C6C6C6C6061F94
:1002F0001F1F181818181818FEFEFEC6C6C6C60618
:100300001F1F1F0000000000F0FCFC0E06C6CEDE22
:10031000DCC8030F0F1C18181C1F0F0FFEFEFEC0B9
:10032000C0C0C0FEFEFE1F1F1F000000001F1F1FD9
:10033000FEFEFE1F1F1F000000000000FEFEFE0666
:100340000F1F1C18181F0F07FEFEFEC0E0F0F8DCA0
:100350000E0602001F1F1F00000001071F1E1810BD
:10036000FEFEFE00000000001F1F1F1818181818BE
:10037000FEFEFE3EF88080F83EFEFEFE1F1F1F00C0
:10038000031F1F03001F1F1FFEFEFE7CF0E080FE08
:10039000FEFE1F1F1F0001030F1F1F1FF0FCFC0E9E
:1003A00006060EFCFCF0030F0F1C18181C0F0F03A1
:1003B000FEFEFEC6C6C6FE7E3C1F1F1F00000000DC
:1003C0000000F0FCFC0E06060EFCFCF0030F0F1CF8
:1003D000181E1C1F1F33FEFEFEC6C6C6FE7E3C0056
:1003E0001F1F1F0000030F1F1C10387CFEE6E6EEE7
:1003F000DEDC98060E1E1C18191F0F0706060606DF
:10040000FEFEFE06060606000000001F1F1F00007D
:100410000000FEFEFE00000000FEFEFE070F1F1C97
:1004200018181C1F0F071EFEFCF0800080F0FCFE59
:100430001E020000031F1F1C1F1F03000000FEFE02
:10044000F80080F8FE3EFEF88000F8FEFE06000F81
:100450001F1F1F07010001071F1F1F0F0000061E9F
:100460003CF8F0E0F0F83C1E0602181E0F070301EE
:1004700003070F1E1810020E1E7EF8E0F87E1E0EF7
:1004800002000000001F1F1F00000000000606C63B
:10049000E6F63E1E0E1C1E1F1B1918181818FEFE2D
:1004A000FE0606FFFFFFC0C00678800000000718A8
:1004B0000606FEFEFEC0C0FFFFFF40707C1E1E7CD5
:1004C000704000000000000000000000000000007C
:1004D0000000404040404040404002060400000010
:1004E00040607030B0B0F0F0E00E1F1F1B19091F04
:1004F0001F1FFEFEFE603030F0E0C01F1F1F0C18F3
:10050000181F0F07C0E0F0703030706040070F1FF9
:100510001C18181C0C04C0E0F0303060FEFEFE0712
:100520000F1F18180C1F1F1FC0E0F0B0B0B0F0E094
:10053000C0070F1F1D19191D0D0530FCFEFE3636B4
:10054000001F1F1F0000C0E0F0303060F0F0F047E7
:10055000CFDFD8D8CCFF7F3FFEFEFE203030F0F05A
:10056000E01F1F1F0000001F1F1FF6F6F61F1F1FB2
:1005700000F6F6F6C0FFFF7FFEFEFEC0E0F0F030B2
:1005800010001F1F1F0301071F1E1C10FEFEFE1F71
:100590001F1FF0F0F02030F0F0E02030F0F0E01F0E
:1005A0001F1F00001F1F1F00001F1F1FF0F0F02063
:1005B0003030F0F0E01F1F1F0000001F1F1FC0E0C1
:1005C000F0703070F0E0C0070F1F1C181C1F0F07E1
:1005D000F0F0F0603070F0E0C0FFFFFF0C18181F63
:1005E0000F07C0E0F0303060F0F0F0070F1F181870
:1005F0000CFFFFFFF0F0F02030101F1F1F00000065
:10060000E0F0F09090B0302008191B13131F1F0E5C
:1006100030FCFCFE3030000F1F1F1818F0F0F00007
:100620000000F0F0F00F1F1F1818081F1F1F10F018
:10063000F0C000E0F0F0100000071F1C1F070000D2
:1006400010F0F0E00000F0F0F00000E0F0F010003A
:1006500000071F1E0F0300030F1E1F0700001030AE
:1006600070E0C080C0E070301010181E0F07030744
:100670000F1E181010F0F0C000C0F0F030C0C0C75E
:10068000FFFC3F0F0100303030F0F0F0301C1E1F37
:100690001B1918180000FCFEFE0603037FFFFCC0B8
:1006A000FEFEFFFF06FEFEFC0000C0FCFF7F030312
:1006B000C0E0E0E0E0C0C0C0E001000000010101D6
:1006C0000100F8080808080808F81F10101010109A
:1006D000101F000005072060000000000000005F00
:1006E00000000007000700147F147F14242A7F2ACB
:1006F0001223130864623649552250000503000096
:10070000001C2241000041221C00082A1C2A080863
:10071000083E08080050300000080808080800607B
:1007200060000020100804023E5149453E00427F0F
:10073000400042615149462141454B311814127F16
:100740001027454545393C4A49493001710905039F
:100750003649494936064949291E00363600000007
:1007600056360000000814224114141414144122B7
:100770001408000201510906324979413E7E1111E7
:10078000117E7F494949363E414141227F41412204
:100790001C7F494949417F090901013E41415132CC
:1007A0007F0808087F00417F41002040413F017FD2
:1007B000081422417F404040407F0204027F7F04B2
:1007C00008107F3E4141413E7F090909063E4151E3
:1007D000215E7F09192946464949493101017F01B6
:1007E000013F4040403F1F2040201F7F2018207FB6
:1007F00063140814630304780403615149454300FA
:10080000007F4141020408102041417F00000402A2
:1008100001020440404040400001020400205454C2
:1008200054787F4844443838444444203844444849
:100830007F3854545418087E090102081454543C5B
:100840007F0804047800447D40002040443D0000BF
:100850007F10284400417F40007C041804787C0805
:1008600004047838444444387C14141408081414DC
:10087000187C7C080404084854545420043F444025
:10088000203C4040207C1C2040201C3C4030403C10
:1008900044281028440C5050503C4464544C4400AC
:1008A0000836410000007F000000413608000808BB
:1008B0002A1C08081C2A08081E6C0A0E2060000169
:1008C0000308070A080103030507010401040606DB
:1008D00006060706060606060101060606060D09B7
:1008E0000708080707090701050807090709070995
:1008F00008070707090D080908020402050802068F
:100900000605060604060601020601090606060695
:100910000405040607090607060301030707FE147A
:100920001E001E0000009090F89690F89690001C13
:1009300000001C000000182422FF4242840810100E
:100940003C1008041C22221CC0308C424080000055
:10095000100C00000C10100C805C2262920C8000C5
:100960000C101010100C08101E00F00C021C6080FF
:10097000020CF080601C04140E140400000000003F
:10098000404040F84040400000000C000000007073
:100990008080808000000000001000C0380618042D
:1009A0000000FC02020202FC0C101010100C0804E3
:1009B000FE00000000101C1000000C020282423CED
:1009C0001018141010100C02222222DC0C1010102F
:1009D000100C8040300804FE0004040404041C00D1
:1009E0003816121212E20C1010101804F8442222C9
:1009F00022C40C101010100C020202E21A060000B1
:100A00001C000000DC22222222DC0C101010100C32
:100A10003C42424222FC08101010080408100870E2
:100A200040A0A010100800000004040890909090CE
:100A30009090000000000000081010A0A0400804E2
:100A4000040000000C028242221C0000140000007E
:100A5000E01804C422121212A2720408F00C3040F2
:100A60004C909090889C90504C200080E09C829C00
:100A7000E08000180400000000000418FE2222227A
:100A80002222DC1C10101010100CF80402020202CA
:100A900004080408101010100804FE0202020202EA
:100AA00004F81C10101010100804FE22222222222A
:100AB000221C101010101010FE2222222222021CD2
:100AC000000000000000F804020202424244C80490
:100AD0000810101010100804FE2020202020FE1CFA
:100AE00000000000001CFE1C00000000FE0C1010A6
:100AF000100CFE804020508804021C0000000004FE
:100B00000810FE0000000000001C10101010101053
:100B1000FE0C30C000C0300CFE1C000004180400A5
:100B2000001CFE0418608000FE1C00000004081C6D
:100B3000F804020202020204F80408101010101057
:100B40000804FE42424242423C1C000000000000F9
:100B5000F804020202020204F8040810101014083B
:100B60001C10FE424242C242423C1C0000000004F3
:100B700008101C22222242428C0C10101010100C63
:100B8000020202FE0202020000001C000000FE0041
:100B900000000000FE040810101008040618608011
:100BA00000806018060000000418040000000638E9
:100BB000C000C03C023CC000C0380600000418045D
:100BC0000000000418040000020C906060900C0209
:100BD000100C000000040C1002041820C02018049F
:100BE00002000000001C0000000000028242221AE5
:100BF00006021018141010101010FE02FC800638A7
:100C0000C0000000041802FE80FC201C021C200012
:100C100000000000000000000000000080808080D4
:100C200080808080020400001088484848F00C1042
:100C30001010081CFE10080808F01C081010100CFA
:100C4000F0080808100C10101008F008080810FE32
:100C50000C101010081CF048484848700C10101078
:100C6000100808FC0A0A001C0000F008080810F828
:100C70004C909090887CFE10080808F01C00000042
:100C8000001CFA1C00FA807CFE8040A010081C00AA
:100C900000000C10FE1CF8100808F0100808F01CEA
:100CA0000000001C0000001CF810080808F01C00E0
:100CB0000000001CF008080808F00C101010100CC0
:100CC000F810080808F0FC081010100CF0080808CC
:100CD00010F80C10101008FCF81008081C00000098
:100CE0003048484890081010100C08FE0808001CF6
:100CF0001010F800000000F80C101010081C18600C
:100D000080008060180000041804000018E000E073
:100D100018E000E01800041804000418040008306B
:100D2000C0C03008100C00000C10186080008060FB
:100D30001800808C700C00000808886818081018CB
:100D400014101010807C02007C80FEFC027C8080ED
:100D50007C00402020604040200000000000000097
:100D6000FC0404040404FC1C10101010101C70136C
:100D700011241FBECFEFD8E0DEBFCDBF11E0A0E051
:100D8000B1E0E6E4FDE202C005900D92AC35B1079A
:100D9000D9F722E0ACE5B1E001C01D92AC3EB2074C
:100DA000E1F716E0C8EBD6E004C02197FE010E94EF
:100DB000AA13C73BD107C9F70E9476130C94A1165A
:100DC0000C940000FC01E35BFE4F408120E4429F55
:100DD000A00111246FEF70E00C94B013CF93DF9358
:100DE000EC01FC01E55BFE4F608331964083649F1C
:100DF000402D11243196408350E03196CA0124E001
:100E0000880F991F2A95E1F7918380833296CA0152
:100E100035E0880F991F3A95E1F7918380833296E8
:100E2000440F551F440F551FBA01660F771F460F19
:100E3000571F440F551F440F551F5183408332964F
:100E400010822A9A229A2B9A3B9A3C9A259A3D9A8A
:100E5000239A219A60E085E691E00E94760E60E098
:100E600085E691E00E947E0E64E085E691E00E94B6
:100E7000830E85E691E00E946F0ECE01DF91CF9147
:100E80000C94E2060F93FC01DC01A55BBE4F3C9184
:100E9000A0E23A9FC00111246817790708F078C0D2
:100EA000DF01A45BBE4F8C91B0E18B9FC001112488
:100EB0004817590708F06CC0CB018F719927DA01E8
:100EC000B295A295AF70AB27BF70AB27B5E0769512
:100ED0006795BA95E1F73A9F600D1124DC0130E285
:100EE000639FA00DB11D1124BD01DF01A35BBE4FA7
:100EF000AC9184E0A89FD00111244F705527A49F86
:100F0000C001A59F900DB49F900D1124AB0133E05B
:100F1000569547953A95E1F7480F591F677077271F
:100F2000DB01AB5CBE4F9C912230B1F028F4222350
:100F300041F0213059F02CC02330C1F02430F1F0C1
:100F400027C0E40FF51F013029F414C0E40FF51F8A
:100F5000002381F080811AC00130D1F4E40FF51F25
:100F60008081292F282391F0909506C0013081F4CB
:100F7000E40FF51F90958081982309C0013041F45A
:100F8000E40FF51F8081292F282311F4982B9083DB
:100F90000F91089561110C94E206FC01E35BFE4F92
:100FA000408120E4429FA001112460E070E00C9495
:100FB000B0132F923F924F925F926F927F928F92D7
:100FC0009F92AF92BF92CF92DF92EF92FF920F93D8
:100FD0001F93CF93DF9300D000D000D0CDB7DEB702
:100FE0004C016B015A01290118011E2D7101E41AEF
:100FF000F50AC901861B970B9E838D83F7FE06C0F9
:10100000F194E194F1088FEF9FEF02C081E090E04E
:101010009C838B838D819E8197FF08C091958195DC
:1010200091099E838D838FEF9FEF02C081E090E056
:101030009A838983EE0CFF1C8D819E81880F991FF6
:101040009E838D8301E0212FA501B601C4010E947A
:1010500042078D819E81E816F90604F595958795DE
:101060003701681A790AC414D504D1F177FC08C095
:101070008B819C81A80EB91E8D819E81681A790A88
:1010800089819A81C80ED91E6E0C7F1C01E0212F28
:10109000A501B601C4010E944207E5CFC70195959D
:1010A00087956D807E80681A790AA214B304C1F016
:1010B00077FC06C089819A81C80ED91E6E187F08F8
:1010C0008B819C81A80EB91E8D819E81680E791E30
:1010D00001E0212FA501B601C4010E944207E5CF1E
:1010E00026960FB6F894DEBF0FBECDBFDF91CF912D
:1010F0001F910F91FF90EF90DF90CF90BF90AF9036
:101100009F908F907F906F905F904F903F902F9027
:1011100008956F927F928F929F92AF92BF92CF92DB
:10112000DF92EF92FF920F931F93CF93DF936C01A7
:10113000EB015A0139014801FE2C6C167D0654F072
:10114000EF2C84019E01A501BE01C6010E94D907B2
:101150002196F3CFDF91CF911F910F91FF90EF90E8
:10116000DF90CF90BF90AF909F908F907F906F90C7
:1011700008956F927F928F929F92AF92BF92CF927B
:10118000DF92EF92FF920F931F93CF93DF937C0137
:10119000162FFC01E35BFE4F8080912C982C882455
:1011A000990C3297C08180E2C89FE0011124612C24
:1011B000712CCC24DD24CC1ADD0ACE0101975C0110
:1011C00068147904D9F1113061F028F01230A1F0DF
:1011D0001330E1F02FC0C3018C239D23892BB1F480
:1011E0000BC0C3018C239D23892B31F49301217003
:1011F000332781E028270FC0C60186219721BE0131
:101200000E948213AB01062D01700DC09301217065
:10121000332791E02927C60186219721BE010E942C
:101220008213AB01022F20E0B50166217721C701AF
:101230000E9442078FEF681A780AC2CFDF91CF91E0
:101240001F910F91FF90EF90DF90CF90BF90AF90E4
:101250009F908F907F906F9008952F923F924F9222
:101260005F926F927F928F929F92AF92BF92CF9236
:10127000DF92EF92FF920F931F93CF93DF93EC01D6
:10128000FC01E35BFE4F808084E0889E40011124D6
:101290007E01ACEAEA1AAEEFFA0AF7018081889D76
:1012A0008001899D100D11240C0F1D1F58013E0156
:1012B000FEEA6F1AFEEF7F0A2E0180EB481A8EEFCE
:1012C000580A1E01A2EB2A1AAEEF3A0AC8018A197F
:1012D0009B098815990574F5D301ED91FC9168017E
:1012E000CC1ADD0AE00FF11F608185E691E00E94D3
:1012F000920ED201ED91FC91EC0FFD1FEC0DFD1D46
:10130000608185E691E00E94920EF10180819181D9
:101310008C0F9D1FFC01EC0DFD1D608185E691E0A9
:101320000E94920ED8016D918D0185E691E00E9498
:10133000920ECCCF2998459A4598F701808181304B
:1013400071F048F0823089F08330A1F4449A439AD6
:10135000F70110820FC04498439881E009C0449877
:10136000439A82E0F701808305C0449A439883E062
:10137000D7018C93299ADF91CF911F910F91FF9004
:10138000EF90DF90CF90BF90AF909F908F907F9025
:101390006F905F904F903F902F900895875B9E4F86
:1013A000FC01718360830895603209F46EE6FC01EC
:1013B000E75BFE4F80819181FC0134964491319628
:1013C00024916417A0F0E62FF0E030E0240F311DE7
:1013D000E217F30764F4641BFC01249121110AC095
:1013E0003196E491E11106C0FC01329608C080E01C
:1013F00090E00895E62FF0E03696E80FF91FE491AB
:101400008E2F90E008952F923F924F925F926F92AD
:101410007F928F929F92AF92BF92CF92DF92EF9284
:10142000FF920F931F93CF93DF93CDB7DEB76497EF
:101430000FB6F894DEBF0FBECDBFFC01E55BFE4FDB
:10144000E08130E2E39FF0011124E617F7070CF486
:1014500009C1FC01E45BFE4FE081A0E1EA9FF001DD
:101460001124E417F5070CF402C10C874A015B0153
:101470006C01FC01E75BFE4FFF83EE83808191816D
:10148000FC013396349139832032B1F460E2C60115
:101490000E94D4093C0184014981040F111D95016A
:1014A000280F391FEE24E394A401B501C6010E9460
:1014B00089087C8A6B8AF6C0FC0134963491319697
:1014C000E491231708F4D8C0422F50E06E2F70E04B
:1014D000DB01A30FB11D4A175B070CF0CDC0A9813A
:1014E0002A2E312CA101495F5F4FE3E055954795C6
:1014F000EA95E1F7231BFC013491311105C03196C7
:10150000E491EE2309F4BBC0FC01369610E0A0E0A4
:10151000B0E0121731F03491A30FB11D1F5F319667
:10152000F8CF4A9F90014B9F300D5A9F300D1124E8
:101530006A5F7F4FDB01A20FB31FBC83AB83E12F38
:10154000F0E03696E80FF91F1491E12FF0E0FC8BE4
:10155000EB8BCF01919581959109A816B9060CF4F2
:10156000A1C08827992782199309881699060CF437
:1015700099C04D83412C9A01215031093A8B298B16
:10158000C10108979B878A87141509F48BC05D8079
:101590005A94842D90E0AB81BC81A80FB91FB88B01
:1015A000AF87FC01EA0DFB1DF987E887FDEFF51514
:1015B00008F456C0AE81BF81ED91FC918F8598896A
:1015C000159D800D911D1124E80FF91FE491852DC3
:1015D00090E09C0143E0220F331F4A95E1F73A83E4
:1015E0002983A989BA898A179B0731F4BD81B23052
:1015F00018F09A858B8502C099818A81692E782E90
:10160000E12CF12C2E2F30E03E872D87A981BA8165
:101610006A167B06CCF026143704B4F0ED85FE85FF
:101620000E2C02C0F595E7950A94E2F7A401460D49
:10163000571DE0FF02C001E001C000E02C85688575
:101640007985C6010E944207FFEFEF1AFF0A2FEFCC
:10165000621A720A38E0E316F104C1F65A94A6CF72
:10166000439492CF8FEF9FEF9C8B8B8B1BC0AFEF80
:10167000BFEFBC8BAB8B16C01C8A1B8A13C0FC014E
:1016800032961491249FC001259F900D1124189F1C
:10169000F001199FF00D11249F012A5F3F4F3C83F9
:1016A0002B8353CF8B899C8964960FB6F894DEBF49
:1016B0000FBECDBFDF91CF911F910F91FF90EF90A3
:1016C000DF90CF90BF90AF909F908F907F906F9062
:1016D0005F904F903F902F9008952F923F924F929E
:1016E0005F926F927F928F929F92AF92BF92CF92B2
:1016F000DF92EF92FF920F931F93CF93DF93CDB7BB
:10170000DEB729970FB6F894DEBF0FBECDBFDC0160
:10171000A55BBE4FBA83A983EC91B0E2EB9FF001C9
:1017200011246E177F070CF079C0FC01E45BFE4FBB
:10173000FC83EB83E081A0E1EA9FF00111244E17C6
:101740005F070CF06BC0FC01E75BFE4F0190F0817E
:10175000E02D3396E4913A016E0E711C77FC5EC069
:10176000EF82902E1901598748875B016C01615007
:101770007109EE24E39483019B010E94D9072101A2
:10178000E12CF12CE92DF0E0FE83ED83C2018219FA
:1017900093092D813E81821793070CF03FC0D2013F
:1017A0002D912D010F8148855985B5016E0D7F1D45
:1017B000C6010E94030A18161906A4F44701880EF0
:1017C000991EB501680D791DEE24E39483019B01F8
:1017D00048855985C6010E94D9077401BFEFEB1AED
:1017E000FB0A02C0892BD1F4E981FA818081F0E201
:1017F0008F9FC001112495012E0D3F1D2817390719
:101800006CF4AB81BC818C91B0E18B9FC001112441
:10181000E885F985E817F9070CF4B8CF29960FB6D3
:10182000F894DEBF0FBECDBFDF91CF911F910F9116
:10183000FF90EF90DF90CF90BF90AF909F908F90F0
:101840007F906F905F904F903F902F9008952F92D0
:101850003F924F925F926F927F928F929F92AF9240
:10186000BF92CF92DF92EF92FF920F931F93CF938D
:10187000DF9300D01F92CDB7DEB79B838A835B01D5
:10188000342E390168014C018FEB881A8EEF980ACB
:10189000D4011D921C920A811B81005C1F4F7B01A9
:1018A000202E1983442E512CC7018A199B098415B7
:1018B0009505ACF4F701D7018D917D01D8018D9389
:1018C0008D0160818A819B810E94D4090196F40177
:1018D00020813181820F931F91838083E5CFEA813C
:1018E000FB81E75BFE4F0190F081E02D3396E491A0
:1018F000AA81BB81AD5BBE4FF0E0ED93FC938A8182
:101900009B81480E591EF201E05CFF4F1082FC01E2
:10191000E95BFE4FD182C082329771826082359737
:101920003082E12C032D222D3981A601B3010E94C2
:101930006D0B0F900F900F90DF91CF911F910F9132
:10194000FF90EF90DF90CF90BF90AF909F908F90DF
:101950007F906F905F904F903F902F9008956F927F
:101960007F928F929F92AF92BF92CF92DF92EF922F
:10197000FF920F931F93CF93DF93EC015B014A011A
:101980007C012BEBE21A2EEFF20AD7018D919C918C
:101990001197860F971F8D939C938E01095B1E4FA5
:1019A000F80120813181240F351F31832083369740
:1019B00020813181319521953109AE01455B5E4F22
:1019C0006A01DA01821793074CF48C91B0E28B9F85
:1019D000C0011124F701918380830BC04C91B0E2C8
:1019E0004B9FA0011124481759074CF4F70131838C
:1019F0002083CE010E94E2067724739401C0712CEB
:101A0000D8014D915C91FE01ED5BFE4F808191818B
:101A10009195819591093996481759074CF4808121
:101A2000B0E18B9FC0011124F801918380830BC02A
:101A30002081F0E12F9F900111242417350744F4F1
:101A4000D8018D939C93CE010E94E2067724739473
:101A5000892809F0C5C0BFEFAB16BB0609F060C00E
:101A6000FE01E35BFE4F8080E0E48E9E4001112486
:101A7000FE01A12CB12CA814B90409F1D6012C91B6
:101A8000B4E02B9F90011124C501B9010E94961367
:101A9000215031098217930721F48081880F8F5FCD
:101AA00008C08081982F990F8181881F8827881FFF
:101AB000890F80832FEFA21AB20A3196DCCFD701AB
:101AC000ED90FC90612C4E01B0EC8B1ABEEF9B0A9E
:101AD000F4018081681608F094C05E01A60CB11C68
:101AE000F0E4AF0EB11CD5016C91CE010E94D40977
:101AF000F6012081A701480F591FF0E22F9F9001A6
:101B00001124421753073CF0D8014D915C9100E03D
:101B1000F50120815BC00196E80EF91E6394D8CFD1
:101B2000AA94AB2809F05CC0FE01E35BFE4FE081A4
:101B300020E4E29FF00111249F01215031093297E6
:101B4000EC0FFD1F2F3F4FEF3407E9F0D6016C91EA
:101B5000B4E06B9FB0011124C9010E949613892B38
:101B600021F481818695805809C08181482F46954E
:101B7000908150E8959FC0011124840F81832150EA
:101B800031093197DFCFD701ED90FC90912C5E01A8
:101B9000B0ECAB1ABEEFBB0AF5018081981688F550
:101BA0006E01C90CD11CF0E4CF0ED11CD6016C9192
:101BB000CE010E94D4099701280F391F37FD0BC0B1
:101BC000F8014081518100E0D6012C91B701CE018E
:101BD0000E94030A16C00196E80EF91E9394DCCF0A
:101BE000FE01E05CFE4F9E01205C3F4FD8014D910D
:101BF0005C91D7016D917C91E12C0081CE010E9416
:101C00006D0B872DDF91CF911F910F91FF90EF907A
:101C1000DF90CF90BF90AF909F908F907F906F900C
:101C2000089583E084BD91E090936E0085BD789423
:101C300008952FB7F89460916001709161018091CF
:101C40006201909163012FBF08951F920F920FB60A
:101C50000F9211242F933F938F939F93AF93BF9332
:101C60008091600190916101A0916201B091630146
:101C70003091640123E0230F2D3720F40196A11D3C
:101C8000B11D05C026E8230F0296A11DB11D2093AA
:101C900064018093600190936101A0936201B0930D
:101CA000630180915C0190915D01A0915E01B09112
:101CB0005F010196A11DB11D80935C0190935D01B0
:101CC000A0935E01B0935F01BF91AF919F918F91FF
:101CD0003F912F910F900FBE0F901F9018958CB5CC
:101CE00080618CBD8CB580648CBD08958CB56130ED
:101CF00011F4806201C08F7D8CBD08958CB5837F07
:101D0000682B6CBD08958CB58C7F962F9370892BB2
:101D10008CBD9DB562FB882780F9692F6E7F682B8B
:101D20006DBD08956EBD0DB407FEFDCF8EB508954F
:101D30008AB18B718AB953988BB1846E8BB95B9AD7
:101D4000E9E6F0E0808184608083E99A08950F934A
:101D50001F930E94190E0091710110917201209140
:101D60007301309174010617170728073907A8F582
:101D70008091E102823021F481E0809370011DC0E6
:101D800080916E018F5F80936E019091700181E070
:101D9000911180E08093700180916E018C3338F056
:101DA00080916F018F5F80936F0110926E0180911F
:101DB0006F018C3310F010926F010E94190EDC013C
:101DC000CB0188519C4FAF4FBF4F809371019093CF
:101DD0007201A0937301B09374018091670182FF37
:101DE00017C0809167018B7F80936701000080910D
:101DF000DE02813069F48091E102823048F4E091A2
:101E0000E202F091E30280818F5F80830E94CA101A
:101E10008091670186FF17C0809167018F7B809357
:101E2000670100008091DE02813069F48091E10257
:101E3000823048F4E091E402F091E50280818F5F06
:101E400080830E94CA108091670187FF25C080911E
:101E500067018F77809367010000A091E202B09143
:101E6000E3021C92E091E402F091E50210821092EC
:101E70006F0110926E0111969C918181890F80FDF6
:101E800003C01092E00203C081E08093E00282E090
:101E90008093E6021092E1028091670185FF2AC0DB
:101EA000809167018F7D8093670100008091DE0241
:101EB0008F5F8093DE028330D8F0A091E202B09170
:101EC000E3028C9181110EC0E091E402F091E502F1
:101ED0008081811107C011968C91811103C081818D
:101EE000882321F081E08093DE0202C01092DE029E
:101EF0001092DF028091680187FF1EC08091680107
:101F00008F77809368010000A091E202B091E30214
:101F10001C92E091E402F091E502108211961C926D
:101F2000118210926F0110926E011092E00282E015
:101F30008093E6021092E1028091680185FF2EC035
:101F4000809168018F7D8093680100008091E0029C
:101F5000811104C081E08093E00204C0813011F45B
:101F60001092E0028091E2029091E3022091E4025B
:101F70003091E5023093E3022093E2029093E50270
:101F80008093E4028091E602811104C081E0809395
:101F9000E60204C0813011F41092E60280916601DD
:101FA000882391F19091660189B1847E98132CC0A9
:101FB0000E94190E00916A0110916B0120916C0131
:101FC00030916D010617170728073907E8F480914B
:101FD00069018F5F80936901843030F080916601E0
:101FE00080936801109266010E94190EDC01CB01FA
:101FF0008C509E4FAF4FBF4F80936A0190936B01FF
:10200000A0936C01B0936D011F910F9108951F92E1
:102010000F920FB60F9211242F933F934F935F931C
:102020006F937F938F939F93AF93BF93EF93FF93A0
:102030004B9B26C089B1847E809366010E94190E55
:10204000DC01CB018C509E4FAF4FBF4F80936A0194
:1020500090936B01A0936C01B0936D010000FF9110
:10206000EF91BF91AF919F918F917F916F915F9110
:102070004F913F912F910F900FBE0F901F90189589
:1020800080916601882351F38091660180936701F6
:1020900010926601E3CF0F93CF9387E791E090937F
:1020A000E3028093E20285E791E09093E50280935A
:1020B000E40260E089E891E00E94CA0782E0809330
:1020C000B000809370008FE18093B30087E080932D
:1020D000B1002FEF83ED90E3215080409040E1F775
:1020E00000C0000062E089E891E00E94B9082FEF8B
:1020F00083ED90E3215080409040E1F700C0000064
:1021000063E089E891E00E94B9082FEF83ED90E346
:10211000215080409040E1F700C0000060E089E875
:1021200091E00E94B9082FEF83ED90E321508040A9
:102130009040E1F700C0000061E089E891E00E9472
:10214000B9082FEF83ED90E3215080409040E1F7F4
:1021500000C0000061E089E891E00E94CA0768EBD6
:1021600078E089E891E00E94CE09C0E300E02C2FDE
:1021700040E050E060E070E089E891E00E94030AEE
:10218000CF5FC93399F761E089E891E0CF910F9172
:102190000C94CA07E091E202F091E30280818A3058
:1021A00051F4A091E402B091E5028C918A3019F4C7
:1021B00081E08093E1028091E1022081813091F5FC
:1021C000A091E402B091E5028C9190E0019630E09C
:1021D0008217930744F481818F5F81831092E60216
:1021E00082E08093E102808190E001962C9130E0C2
:1021F0008217930764F411968C9111978F5F119653
:102200008C9381E08093E60282E08093E1028091EA
:10221000E002811104C081E08093E00208951092F1
:10222000E00208952B3040F081818F5F818310920E
:10223000E60282E08093E102A091E402B091E5021F
:102240008C918B3068F011968C9111978F5F11965D
:102250008C93119781E08093E60282E08093E10203
:1022600090818C91890F80FFD2CF0895EF920F93C8
:102270001F93CF93C091DE02C13009F462C020F0F9
:10228000C23009F409C101C28091DF02811131C05D
:1022900061E089E891E00E94CA0768E670E089E899
:1022A00091E00E94CE09E0E0F1E001900020E9F722
:1022B0003197AF014050514000E010E02FE130E095
:1022C00060E071E089E891E00E94270C0E94190EFD
:1022D000DC01CB014E96A11DB11D8093E8029093C5
:1022E000E902A093EA02B093EB0281E08093DF025F
:1022F000CCC1813009F0C9C10E94190E0091E802D9
:102300001091E9022091EA023091EB0206171707BB
:102310002807390708F0B9C140E050E06FEF7FEFC0
:1023200089E891E00E94AF0C882319F01092DF0237
:10233000ACC10E94190EDC01CB014E96A11DB11D4E
:1023400036C18091DF02811122C061E089E891E00D
:102350000E94CA0762ED76E089E891E00E94CE090A
:10236000E12C0FE010E02FE030E040E050E06FE0C3
:1023700070E089E891E00E94D9071092E80210927B
:10238000E9021092EA021092EB02C093DF02809100
:10239000DF02813009F079C10E94190E0091E80234
:1023A0001091E9022091EA023091EB02061717071B
:1023B0002807390708F069C18091E102823009F0ED
:1023C000FFC08091E70291E0811190E09093E702D5
:1023D0008111F6C08091E602811110C000E020E278
:1023E00049E050E061E070E089E891E00E94030A72
:1023F00020E249E050E067E070E012C0813009F06F
:10240000DFC000E020E249E050E063E170E089E8ED
:1024100091E00E94030A20E249E050E069E170E0A7
:1024200089E891E00E94030A8091E00294E0E92E9D
:1024300001E010E0811112C02FE130E040E050E0F7
:102440006EE170E089E891E00E948908E12C21E0CA
:1024500030E040E050E060E070E011C021E030E0AA
:1024600040E050E060E070E089E891E00E94890877
:10247000E12C2FE130E040E050E06EE170E089E8CF
:1024800091E00E9489080E94190EDC01CB0188535B
:102490009F4FAF4FBF4F8BC08091DF02811116C09D
:1024A00061E089E891E00E94CA0768EB78E089E87A
:1024B00091E00E94CE091092E8021092E902109277
:1024C000EA021092EB0281E08093DF028091DF024A
:1024D000813009F0DAC00E94190E0091E8021091D3
:1024E000E9022091EA023091EB020617170728074C
:1024F000390708F0CAC090916E0180916F011F9258
:102500009F931F928F938DE391E09F938F9389E721
:1025100091E09F938F930E94B71300E0209179017F
:1025200042E050E061E070E089E891E00E94030A37
:1025300020917A0142E050E068E070E089E891E0A3
:102540000E94030A20917C0142E050E061E170E0CA
:1025500089E891E00E94030A20917D0142E050E069
:1025600068E170E089E891E00E94030A80917001BF
:102570002DB73EB7285F3F4F0FB6F8943EBF0FBE52
:102580002DBF882311F003E001C004E02AE341E0FD
:1025900050E06FE070E089E891E00E94030A0E9439
:1025A000190EDC01CB018C509E4FAF4FBF4F809373
:1025B000E8029093E902A093EA02B093EB0265C0AF
:1025C000A091E402B091E502E091E202F091E30211
:1025D0008C911F928F9380811F928F9311968C9173
:1025E0001F928F9381811F928F9387E491E09F9335
:1025F0008F9389E791E09F938F930E94B71300E038
:1026000020917A0140E050E064E070E089E891E0D8
:102610000E94030A20917D0140E050E066E170E0F5
:1026200089E891E00E94030A20917F0149E050E08F
:1026300061E070E089E891E00E94030A2091800146
:1026400049E050E067E070E089E891E00E94030A09
:102650002091820149E050E063E170E089E891E077
:102660000E94030A2091830149E050E069E170E093
:1026700089E891E00E94030A8DB79EB70C960FB6C9
:10268000F8949EBF0FBE8DBFCFCECF911F910F91FB
:10269000EF9008951F920F920FB60F9211242F936F
:1026A0003F934F935F936F937F938F939F93AF93DA
:1026B000BF93EF93FF9389E891E00E942D09FF916A
:1026C000EF91BF91AF919F918F917F916F915F91AA
:1026D0004F913F912F910F900FBE0F901F90189523
:1026E00041E061E089E891E00C94EE060E94110E51
:1026F00000000E944B100E94980E0E94A70E0E949C
:102700003611FBCFAA1BBB1B51E107C0AA1FBB1F81
:10271000A617B70710F0A61BB70B881F991F5A956D
:10272000A9F780959095BC01CD01089597FB072EE0
:1027300016F4009407D077FD09D00E94821307FC9D
:1027400005D03EF4909581959F4F089570956195C1
:102750007F4F0895EE0FFF1F0590F491E02D09942F
:10276000DC0101C06D9341505040E0F70895AEE0A8
:10277000B0E0EDEBF3E10C9478160D891E8986E04C
:102780008C831A8309838FEF9FE79E838D83AE012D
:10279000475E5F4F6F89788DCE0101960E94D913F5
:1027A000EF81F885E00FF11F10822E96E4E00C9483
:1027B0009416ABE0B0E0EFEDF3E10C946A166C0117
:1027C0007B018A01FC0117821682838181FFCCC1C3
:1027D000CE0101963C01F6019381F70193FD8591AD
:1027E00093FF81917F01882309F4BAC1853239F4BE
:1027F00093FD859193FF81917F01853229F4B60184
:1028000090E00E94D015E7CF912C212C312CFFE1D4
:10281000F315D8F08B3279F038F4803279F08332C6
:10282000A1F4232D20611DC08D3261F0803369F445
:10283000232D216016C0832D8260382EE32DE460A5
:102840003E2E2AC0F32DF8601DC037FC2DC020EDB0
:10285000280F2A3040F08E32B9F436FC81C1232D86
:102860002064322E19C036FE06C08AE0989E200DE4
:102870001124922E11C0EAE02E9E200D1124222E4A
:10288000F32DF0623F2E08C08C3621F4832D806832
:10289000382E02C0883641F4F70193FD859193FFED
:1028A00081917F018111B3CF982F9F7D95549330F3
:1028B00028F40C5F1F4F9FE399830DC0833631F0DE
:1028C000833771F0833509F059C021C0F801808148
:1028D00089830E5F1F4F88248394912C530113C06A
:1028E0002801F2E04F0E511CF801A080B18036FEA5
:1028F00003C0692D70E002C06FEF7FEFC5010E9439
:10290000C5154C018201F32DFF773F2E16C028011B
:1029100022E0420E511CF801A080B18036FE03C0B7
:10292000692D70E002C06FEF7FEFC5010E94BA15FC
:102930004C01F32DF0683F2E820133FC1BC0822D29
:1029400090E088169906B0F4B60180E290E00E940B
:10295000D0152A94F4CFF50137FC859137FE81918B
:102960005F01B60190E00E94D01521102A9421E069
:10297000821A91088114910471F7E8C0843611F02D
:10298000893641F5F80137FE07C060817181828187
:1029900093810C5F1F4F08C060817181072E000C6E
:1029A000880B990B0E5F1F4FF32DFF763F2E97FF7D
:1029B00009C090958095709561957F4F8F4F9F4F7F
:1029C000F0683F2E2AE030E0A3010E940C16882E0A
:1029D000861845C0853731F4232D2F7EB22E2AE08C
:1029E00030E025C0932D997FB92E8F36C1F018F4B1
:1029F000883579F0B5C0803719F0883721F0B0C03C
:102A0000E92FE061BE2EB4FE0DC0FB2DF460BF2E99
:102A100009C034FE0AC0292F2660B22E06C028E065
:102A200030E005C020E130E002C020E132E0F801F2
:102A3000B7FE07C060817181828193810C5F1F4F57
:102A400006C06081718180E090E00E5F1F4FA3019E
:102A50000E940C16882E8618FB2DFF773F2E36FE1F
:102A60000DC0232D2E7FA22E891458F434FE0BC0E6
:102A700032FC09C0832D8E7EA82E05C0B82CA32C55
:102A800003C0B82C01C0B92CA4FE0FC0FE01E80D94
:102A9000F11D8081803321F49A2D997EA92E09C0E1
:102AA000A2FE06C0B394B39404C08A2D867809F0C0
:102AB000B394A3FC11C0A0FE06C0B21488F4280C85
:102AC000922C9B180EC0B21460F4B60180E290E024
:102AD0000E94D015B394F7CFB21418F42B1802C08B
:102AE000982C212CA4FE10C0B60180E390E00E9437
:102AF000D015A2FE17C0A1FC03C088E790E002C079
:102B000088E590E0B6010CC08A2D867859F0A1FEC8
:102B100002C08BE201C080E2A7FC8DE2B60190E02A
:102B20000E94D015891438F4B60180E390E00E9429
:102B3000D0159A94F7CF8A94F301E80DF11D8081A6
:102B4000B60190E00E94D0158110F5CF222009F443
:102B500042CEB60180E290E00E94D0152A94F6CFD2
:102B6000F6018681978102C08FEF9FEF2B96E2E1FD
:102B70000C948616FC010590615070400110D8F746
:102B8000809590958E0F9F1F0895FC0161507040B5
:102B900001900110D8F7809590958E0F9F1F089592
:102BA0000F931F93CF93DF93FB01238121FD03C07C
:102BB0008FEF9FEF2CC022FF16C0468157812481E2
:102BC00035814217530744F4A081B1819D012F5FE5
:102BD0003F4F318320838C93268137812F5F3F4F76
:102BE0003783268314C08B01EC01FB010084F1853F
:102BF000E02D0995892BE1F6D80116968D919C91CF
:102C00001797019617969C938E931697CE01DF9196
:102C1000CF911F910F910895FA01AA27283051F101
:102C2000203181F1E8946F936E7F6E5F7F4F8F4FFD
:102C30009F4FAF4FB1E03ED0B4E03CD0670F781F5C
:102C4000891F9A1FA11D680F791F8A1F911DA11D41
:102C50006A0F711D811D911DA11D20D009F468947A
:102C60003F912AE0269F11243019305D3193DEF622
:102C7000CF010895462F4770405D4193B3E00FD0D8
:102C8000C9F7F6CF462F4F70405D4A3318F0495DC3
:102C900031FD4052419302D0A9F7EACFB4E0A695A6
:102CA0009795879577956795BA95C9F700976105C8
:102CB000710508959B01AC010A2E0694579547951E
:102CC00037952795BA95C9F7620F731F841F951F13
:102CD000A01D08952F923F924F925F926F927F9224
:102CE0008F929F92AF92BF92CF92DF92EF92FF921C
:102CF0000F931F93CF93DF93CDB7DEB7CA1BDB0BC8
:102D00000FB6F894DEBF0FBECDBF09942A8839886C
:102D100048885F846E847D848C849B84AA84B98473
:102D2000C884DF80EE80FD800C811B81AA81B9817F
:102D3000CE0FD11D0FB6F894DEBF0FBECDBFED0193
:062D40000895F894FFCF96
:102D460052656C69536F75726365205454205363E2
:102D56006F726520426F6172642C20506F776572C6
:102D66006564206279204669726D776172652054C8
:102D760065616D2100804020100804020125303273
:102D8600753A2530327500253032757C253032751E
:0C2D96002C253032757C25303275000091
:00000001FF
