:100000000C94B8060C94E0060C942E110C94E006A7
:100010000C94E0060C94E0060C94E0060C94A414F6
:100020000C94E0060C94E0060C94E0060C94E006B8
:100030000C94E0060C94E0060C94E0060C94E006A8
:100040000C94510F0C94E0060C94E0060C94E0061E
:100050000C94E0060C94E0060C94E0060C94E00688
:100060000C94E0060C94E00630860A102060000331
:10007000070B090E0B030505060903050304080613
:1000800008080908080808080303090809080C0CEF
:1000900009090909080A0A03090C080C0A0A090ACD
:1000A0000A090B0A0C100C0B0905040508080309C2
:1000B0000909090906090903040A030D09090909BF
:1000C00006080609090F0B09070602060908FEFEC5
:1000D000FE1D1D1D1E1E1E001E1E1E000000000017
:1000E00000003030F0FE3E3030F0FE3E30061E1F85
:1000F0000706061E1F070606387CFEE6FFC6CE8CE6
:100100000C040C1C183F191F0F073C7E42427E3C1A
:100110008060108C82808000000000100C020100C2
:100120000F1F10101F0F00809CFEFEE6BE3E9C803D
:1001300080070F1F1918191F0F0F1F1D1E1E1E00ED
:100140000000E0F8FC1E020F3F7FF080021EFCF86A
:10015000E080F07F3F0F08683E3E68080000000026
:100160000000C0C0C0F8F8F8C0C0C00101010F0F06
:100170000F010101000000DC7C3C80808080800356
:10018000030303030000001C1C1C008078061807F2
:100190000000F8FCFE0606FEFCF8070F1F18181FEB
:1001A0000F07607038FEFEFE0000001F1F1F181CA6
:1001B0001E0686FEFC78181C1E1F1B191818081C2A
:1001C0001EC6C6FEFC38060E1E18181F0F0780C07C
:1001D000F0381CFEFEFE0003030303031F1F1F0372
:1001E000F0FEFE6666E6C686060E1E18181F0F078E
:1001F000F0FCFE4666EECE8C030F1F18181F0F078B
:1002000006060686E6F61E0600001C1F1F010000FB
:1002100038FCFEC6C6FEFC38070F1F18181F0F0754
:1002200078FCFE8686FEFCF0040C1D19181F0F03D7
:100230007070701C1C1C707070DC7C3CE0E0E0F0A6
:100240007070703838030303070707070E0E7070CD
:100250007070707070700707070707070707383856
:10026000707070F0E0E0E00E0E070707070303036D
:10027000181C9EC6E6FE7C3800001D1D1D000000F7
:10028000E018C4F43A0A0AF2FA7C08F00718272F9B
:1002900048484C4F4F2836110080E0F8FE1EFEF80B
:1002A000E08000001C1F0F07060606070F1F1C102A
:1002B000FEFEFEC6C6FEBC98001F1F1F1818181FA2
:1002C0000F07F0FCFC0E060E1E1C08030F1F1C1867
:1002D0001C1F0E06FEFEFE06060EFEFCF01F1F1F74
:1002E00018181C1F0F03FEFEFEC6C6C6C6C6061F94
:1002F0001F1F181818181818FEFEFEC6C6C6C60618
:100300001F1F1F0000000000F0FCFC0E06C6CEDE22
:10031000DCC8030F0F1C18181C1F0F0FFEFEFEC0B9
:10032000C0C0C0FEFEFE1F1F1F000000001F1F1FD9
:10033000FEFEFE1F1F1F000000000000FEFEFE0666
:100340000F1F1C18181F0F07FEFEFEC0E0F0F8DCA0
:100350000E0602001F1F1F00000001071F1E1810BD
:10036000FEFEFE00000000001F1F1F1818181818BE
:10037000FEFEFE3EF88080F83EFEFEFE1F1F1F00C0
:10038000031F1F03001F1F1FFEFEFE7CF0E080FE08
:10039000FEFE1F1F1F0001030F1F1F1FF0FCFC0E9E
:1003A00006060EFCFCF0030F0F1C18181C0F0F03A1
:1003B000FEFEFEC6C6C6FE7E3C1F1F1F00000000DC
:1003C0000000F0FCFC0E06060EFCFCF0030F0F1CF8
:1003D000181E1C1F1F33FEFEFEC6C6C6FE7E3C0056
:1003E0001F1F1F0000030F1F1C10387CFEE6E6EEE7
:1003F000DEDC98060E1E1C18191F0F0706060606DF
:10040000FEFEFE06060606000000001F1F1F00007D
:100410000000FEFEFE00000000FEFEFE070F1F1C97
:1004200018181C1F0F071EFEFCF0800080F0FCFE59
:100430001E020000031F1F1C1F1F03000000FEFE02
:10044000F80080F8FE3EFEF88000F8FEFE06000F81
:100450001F1F1F07010001071F1F1F0F0000061E9F
:100460003CF8F0E0F0F83C1E0602181E0F070301EE
:1004700003070F1E1810020E1E7EF8E0F87E1E0EF7
:1004800002000000001F1F1F00000000000606C63B
:10049000E6F63E1E0E1C1E1F1B1918181818FEFE2D
:1004A000FE0606FFFFFFC0C00678800000000718A8
:1004B0000606FEFEFEC0C0FFFFFF40707C1E1E7CD5
:1004C000704000000000000000000000000000007C
:1004D0000000404040404040404002060400000010
:1004E00040607030B0B0F0F0E00E1F1F1B19091F04
:1004F0001F1FFEFEFE603030F0E0C01F1F1F0C18F3
:10050000181F0F07C0E0F0703030706040070F1FF9
:100510001C18181C0C04C0E0F0303060FEFEFE0712
:100520000F1F18180C1F1F1FC0E0F0B0B0B0F0E094
:10053000C0070F1F1D19191D0D0530FCFEFE3636B4
:10054000001F1F1F0000C0E0F0303060F0F0F047E7
:10055000CFDFD8D8CCFF7F3FFEFEFE203030F0F05A
:10056000E01F1F1F0000001F1F1FF6F6F61F1F1FB2
:1005700000F6F6F6C0FFFF7FFEFEFEC0E0F0F030B2
:1005800010001F1F1F0301071F1E1C10FEFEFE1F71
:100590001F1FF0F0F02030F0F0E02030F0F0E01F0E
:1005A0001F1F00001F1F1F00001F1F1FF0F0F02063
:1005B0003030F0F0E01F1F1F0000001F1F1FC0E0C1
:1005C000F0703070F0E0C0070F1F1C181C1F0F07E1
:1005D000F0F0F0603070F0E0C0FFFFFF0C18181F63
:1005E0000F07C0E0F0303060F0F0F0070F1F181870
:1005F0000CFFFFFFF0F0F02030101F1F1F00000065
:10060000E0F0F09090B0302008191B13131F1F0E5C
:1006100030FCFCFE3030000F1F1F1818F0F0F00007
:100620000000F0F0F00F1F1F1818081F1F1F10F018
:10063000F0C000E0F0F0100000071F1C1F070000D2
:1006400010F0F0E00000F0F0F00000E0F0F010003A
:1006500000071F1E0F0300030F1E1F0700001030AE
:1006600070E0C080C0E070301010181E0F07030744
:100670000F1E181010F0F0C000C0F0F030C0C0C75E
:10068000FFFC3F0F0100303030F0F0F0301C1E1F37
:100690001B1918180000FCFEFE0603037FFFFCC0B8
:1006A000FEFEFFFF06FEFEFC0000C0FCFF7F030312
:1006B000C0E0E0E0E0C0C0C0E001000000010101D6
:1006C0000100F8080808080808F81F10101010109A
:1006D000101F000005072060000000000000005F00
:1006E00000000007000700147F147F14242A7F2ACB
:1006F0001223130864623649552250000503000096
:10070000001C2241000041221C00082A1C2A080863
:10071000083E08080050300000080808080800607B
:1007200060000020100804023E5149453E00427F0F
:10073000400042615149462141454B311814127F16
:100740001027454545393C4A49493001710905039F
:100750003649494936064949291E00363600000007
:1007600056360000000814224114141414144122B7
:100770001408000201510906324979413E7E1111E7
:10078000117E7F494949363E414141227F41412204
:100790001C7F494949417F090901013E41415132CC
:1007A0007F0808087F00417F41002040413F017FD2
:1007B000081422417F404040407F0204027F7F04B2
:1007C00008107F3E4141413E7F090909063E4151E3
:1007D000215E7F09192946464949493101017F01B6
:1007E000013F4040403F1F2040201F7F2018207FB6
:1007F00063140814630304780403615149454300FA
:10080000007F4141020408102041417F00000402A2
:1008100001020440404040400001020400205454C2
:1008200054787F4844443838444444203844444849
:100830007F3854545418087E090102081454543C5B
:100840007F0804047800447D40002040443D0000BF
:100850007F10284400417F40007C041804787C0805
:1008600004047838444444387C14141408081414DC
:10087000187C7C080404084854545420043F444025
:10088000203C4040207C1C2040201C3C4030403C10
:1008900044281028440C5050503C4464544C4400AC
:1008A0000836410000007F000000413608000808BB
:1008B0002A1C08081C2A08081E6C0A0E2060000169
:1008C0000308070A080103030507010401040606DB
:1008D00006060706060606060101060606060D09B7
:1008E0000708080707090701050807090709070995
:1008F00008070707090D080908020402050802068F
:100900000605060604060601020601090606060695
:100910000405040607090607060301030707FE147A
:100920001E001E0000009090F89690F89690001C13
:1009300000001C000000182422FF4242840810100E
:100940003C1008041C22221CC0308C424080000055
:10095000100C00000C10100C805C2262920C8000C5
:100960000C101010100C08101E00F00C021C6080FF
:10097000020CF080601C04140E140400000000003F
:10098000404040F84040400000000C000000007073
:100990008080808000000000001000C0380618042D
:1009A0000000FC02020202FC0C101010100C0804E3
:1009B000FE00000000101C1000000C020282423CED
:1009C0001018141010100C02222222DC0C1010102F
:1009D000100C8040300804FE0004040404041C00D1
:1009E0003816121212E20C1010101804F8442222C9
:1009F00022C40C101010100C020202E21A060000B1
:100A00001C000000DC22222222DC0C101010100C32
:100A10003C42424222FC08101010080408100870E2
:100A200040A0A010100800000004040890909090CE
:100A30009090000000000000081010A0A0400804E2
:100A4000040000000C028242221C0000140000007E
:100A5000E01804C422121212A2720408F00C3040F2
:100A60004C909090889C90504C200080E09C829C00
:100A7000E08000180400000000000418FE2222227A
:100A80002222DC1C10101010100CF80402020202CA
:100A900004080408101010100804FE0202020202EA
:100AA00004F81C10101010100804FE22222222222A
:100AB000221C101010101010FE2222222222021CD2
:100AC000000000000000F804020202424244C80490
:100AD0000810101010100804FE2020202020FE1CFA
:100AE00000000000001CFE1C00000000FE0C1010A6
:100AF000100CFE804020508804021C0000000004FE
:100B00000810FE0000000000001C10101010101053
:100B1000FE0C30C000C0300CFE1C000004180400A5
:100B2000001CFE0418608000FE1C00000004081C6D
:100B3000F804020202020204F80408101010101057
:100B40000804FE42424242423C1C000000000000F9
:100B5000F804020202020204F8040810101014083B
:100B60001C10FE424242C242423C1C0000000004F3
:100B700008101C22222242428C0C10101010100C63
:100B8000020202FE0202020000001C000000FE0041
:100B900000000000FE040810101008040618608011
:100BA00000806018060000000418040000000638E9
:100BB000C000C03C023CC000C0380600000418045D
:100BC0000000000418040000020C906060900C0209
:100BD000100C000000040C1002041820C02018049F
:100BE00002000000001C0000000000028242221AE5
:100BF00006021018141010101010FE02FC800638A7
:100C0000C0000000041802FE80FC201C021C200012
:100C100000000000000000000000000080808080D4
:100C200080808080020400001088484848F00C1042
:100C30001010081CFE10080808F01C081010100CFA
:100C4000F0080808100C10101008F008080810FE32
:100C50000C101010081CF048484848700C10101078
:100C6000100808FC0A0A001C0000F008080810F828
:100C70004C909090887CFE10080808F01C00000042
:100C8000001CFA1C00FA807CFE8040A010081C00AA
:100C900000000C10FE1CF8100808F0100808F01CEA
:100CA0000000001C0000001CF810080808F01C00E0
:100CB0000000001CF008080808F00C101010100CC0
:100CC000F810080808F0FC081010100CF0080808CC
:100CD00010F80C10101008FCF81008081C00000098
:100CE0003048484890081010100C08FE0808001CF6
:100CF0001010F800000000F80C101010081C18600C
:100D000080008060180000041804000018E000E073
:100D100018E000E01800041804000418040008306B
:100D2000C0C03008100C00000C10186080008060FB
:100D30001800808C700C00000808886818081018CB
:100D400014101010807C02007C80FEFC027C8080ED
:100D50007C00402020604040200000000000000097
:100D6000FC0404040404FC1C10101010101CCA1411
:100D700011241FBECFEFD8E0DEBFCDBF11E0A0E051
:100D8000B1E0E0E0F0E302C005900D92AC35B107B0
:100D9000D9F722E0ACE5B1E001C01D92A63FB20751
:100DA000E1F716E0C8EBD6E004C02197FE010E94EF
:100DB0000715C73BD107C9F70E94D3140C94FE173F
:100DC0000C9400000F93FC01E35FFE4F3081A0E222
:100DD0003A9FF00111246E177F0708F0B4C0FC01A0
:100DE000E25FFE4FE081B0E1EB9FF00111244E176E
:100DF0005F0708F0A8C0FB01EF71FF27DA01B29589
:100E0000A295AF70AB27BF70AB27769567957295AB
:100E100062956F7067277F7067273A9F600D112476
:100E2000DF0130E2639FA00DB11D1124BD01FC0163
:100E3000E15FFE4FE081F0E0EE0FFF1FEE0FFF1FBE
:100E40004F705527E49FD001E59FB00DF49FB00D82
:100E50001124AB015695479556954795569547955C
:100E60004A0F5B1F67707727FB01EB5CFE4F3081F9
:100E70002230D9F128F4222351F02130F9F063C057
:100E8000233009F445C0243009F44FC05CC0013060
:100E900059F4DC018D919C91FC01E40FF51F309514
:100EA0008081382330834FC0FC0180819181FC0117
:100EB000E40FF51F8081382B308345C001110BC032
:100EC000DC018D919C91FC01E40FF51F3095808130
:100ED0003823308338C0FC0180819181FC01E40F0C
:100EE000F51F8081382B30832EC0013061F5DC0185
:100EF0008D919C91FC01E40FF51F8081932F982325
:100F000019F4382B30831FC03095832380831BC096
:100F10000130C9F4FC0180819181FC01E40FF51FCF
:100F200030958081382330830EC0013061F4DC01BC
:100F30008D919C91FC01E40FF51F8081932F9823E4
:100F400011F4382B30830F910895662381F0FC0152
:100F5000E15FFE4F408120E4429FA00111246FEF2A
:100F600070E0FC01808191810E940D150895FC01C3
:100F7000E15FFE4F4081F0E44F9FA001112460E04B
:100F800070E0FC01808191810E940D150895CF933E
:100F9000DF93EC01FC01E35FFE4F608331964083F9
:100FA000649F402D11243196408350E03196CA0150
:100FB00082959295907F9827807F98279183808350
:100FC0003296CA01880F991F82959295907F982733
:100FD000807F9827918380833296440F551F440F5A
:100FE000551FBA01660F771F460F571F440F551F35
:100FF000440F551F518340833983288332961082D2
:1010000060E085E691E00E94A20F60E085E691E055
:101010000E94AC0F64E085E691E00E94B10F85E686
:1010200091E00E949B0F2A9A2B9A3B9A3C9A259A10
:101030003D9A239A219A61E0CE010E94A507DF9193
:10104000CF9108952F923F924F925F926F927F922D
:101050008F929F92AF92BF92CF92DF92EF92FF92C8
:101060000F931F93CF93DF9300D000D000D0CDB764
:10107000DEB79A8389836B015E834D833C832B8328
:1010800018011E2D7101E41AF50A2901461A570AA2
:10109000FF203CF4F194E194F10888248A94982C80
:1010A00003C088248394912C55203CF4519441949E
:1010B0005108AA24AA94BA2C03C0AA24A394B12C40
:1010C000EE0CFF1C440C551C01E0212F4D815E816C
:1010D000B60189819A810E94E206E414F5044CF578
:1010E000C201959587953701681A790A8B819C8191
:1010F0008C159D0509F443C0772044F08D819E81B5
:10110000880D991D9E838D8364187508CA0CDB1C9D
:101110006E0C7F1C01E0212F4D815E81B60189811B
:101120009A810E94E2068B819C818C159D0521F796
:1011300026C0C701959587953201681A790A8D8175
:101140009E8128163906D9F0772024F0CA0CDB1CC2
:101150006E187F088D819E81880D991D9E838D83D9
:10116000640C751C01E0212FAC01B60189819A81C4
:101170000E94E2068D819E812816390629F726965F
:101180000FB6F894DEBF0FBECDBFDF91CF911F9198
:101190000F91FF90EF90DF90CF90BF90AF909F9016
:1011A0008F907F906F905F904F903F902F90089519
:1011B0006F927F928F929F92AF92BF92CF92DF9267
:1011C000EF92FF920F931F93CF93DF933C01EB01BC
:1011D0004A0169015801FE2C2617370764F0EF2CED
:1011E00085019E01A401BE01C3010E94220821962F
:1011F000CC16DD06A4F7DF91CF911F910F91FF90E0
:10120000EF90DF90CF90BF90AF909F908F907F90A6
:101210006F9008956F927F928F929F92AF92BF923C
:10122000CF92DF92EF92FF920F931F93CF93DF93B2
:10123000FC01E15FFE4FE080F12CFE2CEE24FF0C60
:101240003297C08120E2C29FE0011124E114F10431
:1012500009F4B3C0162F6C01612C712C88249924D9
:101260008C1A9D0A5E0181E0A81AB1081130C9F1FB
:1012700038F0123009F466C0133009F474C086C027
:10128000AA24BB24AC1ABD0A4E0121E0821A91089F
:10129000CE0186219721892B89F4C50186219721CA
:1012A000BE010E94DF14AB01062D017020E0B401E5
:1012B00066217721C6010E94E20678C0830181E0A1
:1012C00008270170C50186219721BE010E94DF1405
:1012D000AB0120E0B40166217721C6010E94E2063D
:1012E00065C0AA24BB24AC1ABD0A4E0121E0821AB3
:1012F0009108CE0186219721892B99F4830181E001
:1013000008270170C50186219721BE010E94DF14C4
:10131000AB0120E0B40166217721C6010E94E206FC
:101320003DC0C50186219721BE010E94DF14AB019B
:10133000062D017020E0B40166217721C6010E94CC
:10134000E2062CC0C40186219721BE010E94DF1451
:10135000AB01062D017020E0B50166217721C601A1
:101360000E94E20613C0C30121E08227082F01700A
:10137000C40186219721BE010E94DF14AB0120E049
:10138000B50166217721C6010E94E2068FEF681A37
:10139000780AE614F70409F069CF0FC02FEF621A3C
:1013A000720A6E147F0408F4A4CF07C08FEF681A86
:1013B000780A6E147F0408F46BCFDF91CF911F91F0
:1013C0000F91FF90EF90DF90CF90BF90AF909F90E4
:1013D0008F907F906F9008958F929F92AF92BF925F
:1013E000CF92DF92EF92FF920F931F93CF93DF93F1
:1013F0008C01FC01E15FFE4FE080F12CEE0CFF1C44
:10140000EE0CFF1C379620812E9DC0012F9D900D64
:1014100011241E141F040CF04DC0EC01E80EF91E3F
:1014200058018CEEA81A8EEFB80A6801AEEECA1AFF
:10143000AEEFDA0A4801B0EF8B1ABEEF9B0AD80173
:10144000ED91FC91D5018D919C91E80FF91FEC0F66
:10145000FD1F608185E691E00E94C00FD801ED91EB
:10146000FC91D6018D919C91E80FF91FEC0FFD1FA7
:10147000608185E691E00E94C00FD801ED91FC915A
:10148000D4018D919C91E80FF91FEC0FFD1F608135
:1014900085E691E00E94C00FD801ED91FC91EC0F20
:1014A000FD1F608185E691E00E94C00F2196CE1558
:1014B000DF0529F62998459A4598F801EA5EFE4F1E
:1014C0008081813071F028F0823099F08330C9F04A
:1014D0001EC044984398F801EA5EFE4F81E0808385
:1014E00016C04498439AF801EA5EFE4F82E080837A
:1014F0000EC0449A4398F801EA5EFE4F83E0808371
:1015000006C0449A439AF801EA5EFE4F1082299A77
:10151000DF91CF911F910F91FF90EF90DF90CF90CF
:10152000BF90AF909F908F900895855F9E4FFC0174
:10153000718360830895603209F46EE6FC01E55F13
:10154000FE4F20813181F901349694913196E491D6
:101550006917A8F0462F50E0F0E0E90FF11D4E1793
:101560005F0784F4691BF9018491811112C03196DF
:10157000E491EE2351F00DC08E2F90E0089580E0AD
:1015800090E0089580E090E00895F9013296E491AA
:10159000F3CFE62FF0E03696E20FF31FE491ECCFA5
:1015A0002F923F924F925F926F927F928F929F9273
:1015B000AF92BF92CF92DF92EF92FF920F931F9361
:1015C000CF93DF93CDB7DEB764970FB6F894DEBF45
:1015D0000FBECDBFFC01E35FFE4FE08130E2E39F31
:1015E000F0011124E617F7070CF430C1FC01E25FAB
:1015F000FE4FE081A0E1EA9FF0011124E417F50716
:101600000CF429C10D831A017B876A879C838B8325
:10161000FC01E55FFE4F60817181FB0133964490D0
:101620002032B9F460E20E949B0A6C018101040D32
:10163000111D2A853B85280F391FEE24E394A10153
:101640006A857B858B819C810E94D808DF82CE824F
:101650002AC1FB013496349131961491231708F472
:10166000FFC0422F50E0812F90E0830F911D48175B
:1016700059070CF0F8C0512CA201495F5F4FCA0115
:1016800099230CF40796959587959595879595954B
:101690008795231BFB0134913111E8C03196E49109
:1016A000EE2309F4F2C0E2C03491A30FB11D3196CC
:1016B000E417F507C9F702C0A0E0B0E08A9FA001D7
:1016C0008B9F500D1124E12FF0E036964E0F5F1FD7
:1016D00030E0F9013696E60FF71FE491EE2EF12C7B
:1016E000FF82EE8297013195219531096A857B85CC
:1016F000621773070CF4D7C0222733272419350942
:10170000221633060CF4CFC0EE2309F4CCC08C872C
:101710009B012F5F3F4FE1507901EE0EF11CF88ADB
:10172000EF867A8369832B813C81255F3E4F398721
:1017300028877A01E61AF70AFA8AE98A99279C012A
:10174000215031093B872A87A201485051095E8701
:101750004D871C8511501E3F08F06CC069887A883F
:10176000E980FA806E0C7F1C812F90E0EE80FF8074
:10177000E89EF001E99EF00DF89EF00D1124E60DB3
:10178000F71DA885B9858D909C90E80DF91DE49111
:101790005C01AA0CBB1CAA0CBB1CAA0CBB1CEA84D7
:1017A000FB848E159F0531F42C85223028F0CD84E2
:1017B000DE8403C0650101C065017601C20CD31C43
:1017C0001C8A1B8A8E2E912C2B89EA14FB04F4F0C0
:1017D0004E145F04DCF0C40102C0959587952A95EC
:1017E000E2F780FF0AC001E02D81A60169817A81BC
:1017F0008B819C810E94E20609C000E02D81A60138
:1018000069817A818B819C810E94E2066B897C8947
:101810006F5F7F4F7C8B6B8B7FEFE71AF70A8FEF41
:10182000C81AD80AAB89BC89189771F611501E3FA7
:1018300008F49ACFE981FA813196FA83E983EF843B
:10184000F888EE16FF0609F084CF2DC02FEF3FEF8A
:101850003F832E8328C04FEF5FEF5F834E8323C00B
:101860001F821E8220C01F821E821DC0222309F4F7
:1018700023CFFB0136964FEF420F50E0495F5F4F99
:10188000460F571FA0E0B0E00FCFFB013296E49166
:10189000829F90011124E29FA001E39F500D11242B
:1018A0004A5F5F4F1BCF8E819F8164960FB6F8947D
:1018B000DEBF0FBECDBFDF91CF911F910F91FF9083
:1018C000EF90DF90CF90BF90AF909F908F907F90E0
:1018D0006F905F904F903F902F9008952F923F927E
:1018E0004F925F926F927F928F929F92AF92BF9230
:1018F000CF92DF92EF92FF920F931F93CF93DF93DC
:1019000000D000D000D0CDB7DEB7FC01E35FFE4FC2
:10191000E081A0E2EA9FF00111246E177F070CF02E
:1019200082C0FC01E25FFE4FE081B0E1EB9FF0017D
:1019300011244E175F070CF076C0FC01E55FFE4FE7
:101940000190F081E02D3396E491DA01AE0FB11DE4
:10195000BC83AB83BB230CF466C0FE2C0983190146
:101960005A016B012C0161507109EE24E3948D0141
:101970009B010E942208B981BB2309F454C0410194
:101980002B0E311C1E821D823201E3EF6E1AEEEF28
:101990007E0A9201225F3E4F3A832983D4012D9122
:1019A0004D010F2DA5016D817E816C0D7D1DC20144
:1019B0000E94D00A18161906CCF4ED81FE81E80FBA
:1019C000F91FFE83ED83BF016C0D7D1DEE24E394B2
:1019D0000B811C819B01A501C2010E9422082D815F
:1019E0003E812F5F3F4F3E832D8302C09923DCF061
:1019F000D3018C91B0E28B9FC00111242D813E81D7
:101A00002C0D3D1D2817390774F4E981FA81808176
:101A1000F0E18F9FC0011124A816B90624F48214A6
:101A2000930409F0BBCF26960FB6F894DEBF0FBE25
:101A3000CDBFDF91CF911F910F91FF90EF90DF907D
:101A4000CF90BF90AF909F908F907F906F905F905E
:101A50004F903F902F9008952F923F925F926F92F8
:101A60007F928F929F92AF92BF92CF92DF92EF922E
:101A7000FF920F931F93CF93DF936C01542E1901A4
:101A80003801FC01ED5FFE4F11821082842E912CF3
:101A90001814190404F58C010E5F1F4FC62FD72FA1
:101AA000540182E0A80EB11CAC0CBD1C7F01FE01EC
:101AB0008991D8018D938D016081C6010E949B0A96
:101AC0000196F70120813181820F931F91838083DA
:101AD0000A151B0561F7F601E55FFE4F0190F081E5
:101AE000E02D33968491F601EB5FFE4F90E09183F9
:101AF0008083F601E80DF91D1282F601E75FFE4FC3
:101B000071826082329731822082359750829601AD
:101B10002E5F3F4FE12C052DA301B101C6010E94AC
:101B20006E0CDF91CF911F910F91FF90EF90DF909E
:101B3000CF90BF90AF909F908F907F906F905F906D
:101B40003F902F9008958F929F92AF92BF92CF9225
:101B5000DF92EF92FF920F931F93CF93DF93EC01ED
:101B60008B017A01FC01E95FFE4F80819181860F34
:101B7000971F91838083329620813181240F351FF6
:101B80003183208336972081318131952195310928
:101B90008217930794F43496DE01A35FBE4F8C91B5
:101BA00020E2829FC00111249183808361E0CE01F5
:101BB0000E94A507DD24D39416C0FE01E35FFE4F0B
:101BC000408160E2469FA00111244817590754F450
:101BD00036973183208361E0CE010E94A507DD2482
:101BE000D39401C0D12CFE01E75FFE4F40815181AB
:101BF0003497808191819195819591094817590772
:101C000094F43496DE01A25FBE4F8C91A0E18A9FCE
:101C1000C00111249183808361E0CE010E94A50759
:101C2000DD24D39414C0FE01E25FFE4F2081B0E1B9
:101C30002B9F90011124241735074CF4359791837D
:101C4000808361E0CE010E94A507DD24D394EF28B4
:101C500009F0F1C00F3FEFEF1E0709F083C0FE014E
:101C6000E15FFE4F80818823E1F1E0E0F0E07E015A
:101C700023EFE21A2EEFF20A8E01015F1E4FD70109
:101C80002C9130E0220F331F220F331FCF01B901F7
:101C90000E94F314215031098217930749F4A88157
:101CA000B981AE0FBF1F8C91880F8F5F8C930FC0CF
:101CB000A881B981AE0FBF1F11968C911197982FF3
:101CC000991F9927991F8C91880F890F8C933196B2
:101CD000D8018C91B0E48B9FC0011124E817F9075B
:101CE00074F2FE01E95FFE4FE080F180359780815C
:101CF000882309F4B4C0C12C5E01E3EFAE1AEEEF05
:101D0000BE0A4E01FEEF8F1A9F0A0C2D10E0FE0155
:101D1000E00FF11F6281CE010E949B0AAC014E0DC3
:101D20005F1DD5012C91B0E22B9F90011124421729
:101D300053077CF0FE01E00FF11FDE01A75FBE4FED
:101D40004D915C9100E02281B701CE010E94D00A42
:101D500086C00196E80EF91EC394F4018081C8166E
:101D6000A0F27DC00130110509F065C0FE01E15F00
:101D7000FE4F2081F0E42F9F900111242150310962
:101D80004AF18E01035F1E4FD8016C9170E0660F1F
:101D9000771F660F771FC9010E94F314892B49F43E
:101DA000E881F981E20FF31F808186958058808356
:101DB0000EC0E881F981E20FF31FDF0111979C91BA
:101DC00080818695B0E89B9F800D112480832150EF
:101DD0003109D0F6FE01E95FFE4FE080F1803597D2
:101DE00080818823E1F1912C8F01A92CB12CFE0177
:101DF000EA0DFB1D6281CE010E949B0A9C012E0D03
:101E00003F1D33237CF0FE01EA0DFB1DDE01A75FC1
:101E1000BE4F4D915C9100E02281B701CE010E943E
:101E2000D00A1DC00196E80EF91E9394D8018C913A
:101E30009816D8F214C0FE01EE5FFE4F9E012E5F91
:101E40003F4FDE01A75FBE4F4D915C9111971297F6
:101E50006D917C91E12C0081CE010E946E0C8D2D44
:101E6000DF91CF911F910F91FF90EF90DF90CF9076
:101E7000BF90AF909F908F90089583E084BD91E0D4
:101E800090936E0085BD789408952FB7F894609173
:101E900060017091610180916201909163012FBF97
:101EA00008951F920F920FB60F9211242F933F9314
:101EB0008F939F93AF93BF93809160019091610145
:101EC000A0916201B09163013091640123E0230F7E
:101ED0002D3720F40196A11DB11D05C026E8230F62
:101EE0000296A11DB11D209364018093600190931F
:101EF0006101A0936201B093630180915C019091B4
:101F00005D01A0915E01B0915F010196A11DB11D1F
:101F100080935C0190935D01A0935E01B0935F019B
:101F2000BF91AF919F918F913F912F910F900FBED5
:101F30000F901F9018958CB580618CBD8CB5806416
:101F40008CBD0895613021F48CB580628CBD0895FC
:101F50008CB58F7D8CBD08958CB5837F682B6CBD4F
:101F600008958CB58C7F962F9370892B8CBD9DB571
:101F700062FB882780F9692F6E7F682B6DBD0895FD
:101F80006EBD0DB407FEFDCF8EB508958AB18B717D
:101F90008AB953988BB1846E8BB95B9AE9E6F0E00D
:101FA000808184608083E99A08950F931F930E9433
:101FB000450F0091790110917A0120917B013091B8
:101FC0007C01061717072807390788F580918001DB
:101FD000823021F481E08093780119C0E6E7F1E0D6
:101FE00080818F5F8083928181E0911180E0E6E7BC
:101FF000F1E0828380818C3320F081818F5F818347
:102000001082809177018C3310F0109277010E943A
:10201000450FDC01CB0188519C4FAF4FBF4F8093E0
:10202000790190937A01A0937B01B0937C01809118
:1020300067018823BCF4E6E6F1E081818F77818334
:10204000000080917D01813069F4809180018230AF
:1020500048F4E0918101F091820180818F5F80835B
:102060000E94F0118091670182FF17C0E6E6F1E05F
:1020700081818B7F8183000080917D01813069F4B3
:1020800080918001823048F4E0918301F0918401D5
:1020900080818F5F80830E94F0118091670185FFAE
:1020A0002AC0E6E6F1E081818F7D81830000EDE7C3
:1020B000F1E0A481B5811C92A681B7811C92A6E7AC
:1020C000B1E011961C9211971C92A481B5811196D2
:1020D0009C910680F781E02D8181890F80FD03C0EE
:1020E00010927F0103C081E080937F01EDE7F1E072
:1020F00082E0808713828091670186FF2AC0E6E62E
:10210000F1E081818F7B81830000EDE7F1E0808148
:102110008F5F80838330D8F0E0918101F09182015C
:10212000808181110EC0A0918301B09184018C91B6
:10213000811107C08181811104C011968C9188237F
:1021400021F081E080937D0102C010927D01109208
:102150007E018091680185FF20C0E6E6F1E0828182
:102160008F7D82830000EDE7F1E0A481B5811C92B0
:10217000A681B7811C92A481B58111961C92A6817B
:10218000B78111961C92A6E7B1E011961C921197A7
:102190001C92128282E0808713828091680186FF00
:1021A00027C0E6E6F1E082818F7B82830000809188
:1021B0007F01811104C081E080937F0104C08130E0
:1021C00011F410927F01EDE7F1E084819581268181
:1021D000378135832483978386838085811104C06A
:1021E00081E08093850104C0813011F41092850153
:1021F00080916601882379F19091660189B1847E8E
:10220000981329C00E94450F00917201109173012B
:1022100020917401309175010617170728073907B7
:10222000D0F4E6E6F1E083818F5F8383843018F099
:102230008081828310820E94450FDC01CB018C508B
:102240009E4FAF4FBF4F8093720190937301A09345
:102250007401B09375011F910F9108951F920F9211
:102260000FB60F9211242F933F934F935F936F9369
:102270007F938F939F93AF93BF93CF93DF93EF930E
:10228000FF934B9B12C089B1847EC6E6D1E0888360
:102290000E94450FDC01CB018C509E4FAF4FBF4FCA
:1022A0008C879D87AE87BF8709C080916601882390
:1022B00029F0E6E6F1E08081818310820000FF9141
:1022C000EF91DF91CF91BF91AF919F918F917F91CE
:1022D0006F915F914F913F912F910F900FBE0F9093
:1022E0001F9018950F93CF93EDE7F1E08DE891E003
:1022F000958384838BE891E09783868360E08FE900
:1023000091E00E94A50782E08093B0008093700066
:102310008FE18093B30087E08093B1002FEF83EDCE
:1023200090E3215080409040E1F700C0000062E05F
:102330008FE991E00E940A092FEF83ED90E321508D
:1023400080409040E1F700C0000063E08FE991E039
:102350000E940A092FEF83ED90E3215080409040C6
:10236000E1F700C0000060E08FE991E00E940A09F7
:102370002FEF83ED90E3215080409040E1F700C0C3
:10238000000061E08FE991E00E940A092FEF83EDE0
:1023900090E3215080409040E1F700C0000061E0F0
:1023A0008FE991E00E94A50768EB78E08FE991E062
:1023B0000E94950AC0E300E02C2F40E050E060E06E
:1023C00070E08FE991E00E94D00ACF5FC93399F79E
:1023D00061E08FE991E00E94A507CF910F910895E8
:1023E000E0918101F091820180818A3061F4A091B5
:1023F0008301B09184018C918A3009F073C081E02F
:102400008093800104C0909180019130D1F52081AA
:1024100030E0A0918301B09184018C9190E002960C
:102420002817390744F081818F5F8183EDE7F1E060
:10243000108682E08383ADE7B1E01696ED91FC91C2
:102440001797208130E014960D90BC91A02D8C91AF
:1024500090E00296281739074CF081818F5F8183C5
:10246000EDE7F1E081E0808782E0838380917F0166
:10247000811104C081E080937F01089510927F0153
:1024800008958B3040F081818F5F8183EDE7F1E02B
:10249000108682E08383E0918301F0918401808142
:1024A0008B3048F081818F5F8183EDE7F1E081E03F
:1024B000808782E08383EDE7F1E0A481B5819C9180
:1024C0000680F781E02D8081890F80FD10C080910A
:1024D0007F01811104C081E080937F0108951092F3
:1024E0007F010895809180018130A9F690CF0895F1
:1024F000EF92FF920F931F93CF93DF9380917D0113
:10250000813009F467C020F0823009F47DC115C222
:1025100080917E0181112EC061E08FE991E00E94DF
:10252000A50768E670E08FE991E00E94950AE0E077
:10253000F1E001900020E9F73197AF0140505140A0
:1025400000E010E02FE130E060E071E08FE991E021
:102550000E942C0D0E94450FEDE7F1E0DC01CB015C
:102560004E96A11DB11D82879387A487B58781E010
:102570008183E3C1813009F0E0C10E94450F0091E1
:102580008701109188012091890130918A010617F5
:1025900017072807390708F0D0C140E050E06FEF77
:1025A0007FEF8FE991E00E94A30D882319F010922C
:1025B0007E01C3C10E94450FDC01CB014E96A11DD7
:1025C000B11D8093870190938801A0938901B093F6
:1025D0008A01B3C180917E01811121C061E08FE940
:1025E00091E00E94A50762ED76E08FE991E00E94FC
:1025F000950AE12C0FE010E02FE030E040E050E0E1
:102600006FE070E08FE991E00E942208EDE7F1E0D1
:10261000128613861486158681E0818303C081307B
:1026200009F08BC10E94450F00918701109188012C
:102630002091890130918A01061717072807390769
:1026400008F07BC1809180018230B9F580918601CC
:1026500091E0811190E09093860181112EC08091CC
:102660008501811114C000E020E249E050E061E002
:1026700070E08FE991E00E94D00A20E249E050E04A
:1026800067E070E08FE991E00E94D00A73C081306A
:10269000A1F400E020E249E050E063E170E08FE95E
:1026A00091E00E94D00A20E249E050E069E170E048
:1026B0008FE991E00E94D00A5DC0EDE7F1E0A681CC
:1026C000B7810480F581E02D8C911F928F938081DA
:1026D0001F928F9311968C911F928F9381811F92DD
:1026E0008F938DE391E09F938F93CFE8D1E0DF93B9
:1026F000CF930E94141500E0298140E050E064E08F
:1027000070E08FE991E00E94D00A2C8140E050E017
:1027100066E170E08FE991E00E94D00A2E8149E0E5
:1027200050E061E070E08FE991E00E94D00A2F81D3
:1027300049E050E067E070E08FE991E00E94D00A44
:10274000298549E050E063E170E08FE991E00E9463
:10275000D00A2A8549E050E069E170E08FE991E014
:102760000E94D00A8DB79EB70C960FB6F8949EBF04
:102770000FBE8DBF80917F0181111BC06894EE2434
:10278000E2F801E010E02FE130E040E050E06EE1DF
:1027900070E08FE991E00E94D808E12C21E030E060
:1027A00040E050E060E070E08FE991E00E94D808DE
:1027B0001AC06894EE24E2F801E010E021E030E075
:1027C00040E050E060E070E08FE991E00E94D808BE
:1027D000E12C2FE130E040E050E06EE170E08FE965
:1027E00091E00E94D8080E94450FDC01CB0188537C
:1027F0009F4FAF4FBF4F8093870190938801A09365
:102800008901B0938A0199C080917E01811114C021
:1028100061E08FE991E00E94A50768EB78E08FE91D
:1028200091E00E94950AEDE7F1E012861386148686
:10283000158681E0818303C0813009F07EC00E944B
:10284000450F0091870110918801209189013091F5
:102850008A01061717072807390708F06EC00F2EE0
:10286000F6E7EF2EF1E0FF2EF02DF7019081818148
:102870001F929F931F928F9381E591E09F938F9377
:10288000CFE8D1E0DF93CF930E94141500E02881B8
:1028900042E050E061E070E08FE991E00E94D00AF0
:1028A000298142E050E068E070E08FE991E00E9409
:1028B000D00A2B8142E050E061E170E08FE991E0C5
:1028C0000E94D00A2C8142E050E068E170E08FE97C
:1028D00091E00E94D00AF70182812DB73EB7285FB0
:1028E0003F4F0FB6F8943EBF0FBE2DBF882359F05F
:1028F00003E02AE341E050E06FE070E08FE991E00F
:102900000E94D00A0AC004E02AE341E050E06FE0F0
:1029100070E08FE991E00E94D00A0E94450FDC012F
:10292000CB018C509E4FAF4FBF4F80938701909348
:102930008801A0938901B0938A01DF91CF911F9103
:102940000F91FF90EF9008951F920F920FB60F9284
:1029500011242F933F934F935F936F937F938F93A4
:102960009F93AF93BF93EF93FF938FE991E00E9402
:10297000EC09FF91EF91BF91AF919F918F917F9162
:102980006F915F914F913F912F910F900FBE0F90DC
:102990001F90189526EB32E041E061E08FE991E06D
:1029A0000E94C70708950E943D0F00000E94721107
:1029B0000E94C60F0E94D50F0E947812FBCFAA1B5F
:1029C000BB1B51E107C0AA1FBB1FA617B70710F01A
:1029D000A61BB70B881F991F5A95A9F7809590954C
:1029E000BC01CD01089597FB072E16F4009407D083
:1029F00077FD09D00E94DF1407FC05D03EF49095C6
:102A000081959F4F0895709561957F4F0895EE0FC2
:102A1000FF1F0590F491E02D0994DC0101C06D9336
:102A200041505040E0F70895AEE0B0E0EAE1F5E152
:102A30000C94D5170D891E8986E08C831A8309832F
:102A40008FEF9FE79E838D83AE01475E5F4F6F8957
:102A5000788DCE0101960E943615EF81F885E00F42
:102A6000F11F10822E96E4E00C94F117ABE0B0E079
:102A7000ECE3F5E10C94C7176C017B018A01FC01C2
:102A800017821682838181FFCCC1CE0101963C0161
:102A9000F6019381F70193FD859193FF81917F0169
:102AA000882309F4BAC1853239F493FD859193FFE7
:102AB00081917F01853229F4B60190E00E942D17A3
:102AC000E7CF912C212C312CFFE1F315D8F08B327C
:102AD00079F038F4803279F08332A1F4232D20612B
:102AE0001DC08D3261F0803369F4232D216016C042
:102AF000832D8260382EE32DE4603E2E2AC0F32D14
:102B0000F8601DC037FC2DC020ED280F2A3040F0A2
:102B10008E32B9F436FC81C1232D2064322E19C0C7
:102B200036FE06C08AE0989E200D1124922E11C018
:102B3000EAE02E9E200D1124222EF32DF0623F2E6E
:102B400008C08C3621F4832D8068382E02C0883668
:102B500041F4F70193FD859193FF81917F018111EC
:102B6000B3CF982F9F7D9554933028F40C5F1F4F5F
:102B70009FE399830DC0833631F0833771F083353D
:102B800009F059C021C0F801808189830E5F1F4F71
:102B900088248394912C530113C02801F2E04F0E36
:102BA000511CF801A080B18036FE03C0692D70E091
:102BB00002C06FEF7FEFC5010E9422174C01820116
:102BC000F32DFF773F2E16C0280122E0420E511C44
:102BD000F801A080B18036FE03C0692D70E002C00C
:102BE0006FEF7FEFC5010E9417174C01F32DF068BE
:102BF0003F2E820133FC1BC0822D90E0881699067F
:102C0000B0F4B60180E290E00E942D172A94F4CF30
:102C1000F50137FC859137FE81915F01B60190E0A7
:102C20000E942D1721102A9421E0821A9108811404
:102C3000910471F7E8C0843611F0893641F5F80146
:102C400037FE07C060817181828193810C5F1F4FC5
:102C500008C060817181072E000C880B990B0E5FF4
:102C60001F4FF32DFF763F2E97FF09C0909580955B
:102C7000709561957F4F8F4F9F4FF0683F2E2AE0F0
:102C800030E0A3010E946917882E861845C0853759
:102C900031F4232D2F7EB22E2AE030E025C0932D73
:102CA000997FB92E8F36C1F018F4883579F0B5C008
:102CB000803719F0883721F0B0C0E92FE061BE2ECF
:102CC000B4FE0DC0FB2DF460BF2E09C034FE0AC057
:102CD000292F2660B22E06C028E030E005C020E192
:102CE00030E002C020E132E0F801B7FE07C06081A9
:102CF0007181828193810C5F1F4F06C06081718159
:102D000080E090E00E5F1F4FA3010E946917882E9C
:102D10008618FB2DFF773F2E36FE0DC0232D2E7F0C
:102D2000A22E891458F434FE0BC032FC09C0832D46
:102D30008E7EA82E05C0B82CA32C03C0B82C01C0D1
:102D4000B92CA4FE0FC0FE01E80DF11D8081803377
:102D500021F49A2D997EA92E09C0A2FE06C0B39433
:102D6000B39404C08A2D867809F0B394A3FC11C0F3
:102D7000A0FE06C0B21488F4280C922C9B180EC03A
:102D8000B21460F4B60180E290E00E942D17B39473
:102D9000F7CFB21418F42B1802C0982C212CA4FEE3
:102DA00010C0B60180E390E00E942D17A2FE17C06C
:102DB000A1FC03C088E790E002C088E590E0B6017E
:102DC0000CC08A2D867859F0A1FE02C08BE201C0AA
:102DD00080E2A7FC8DE2B60190E00E942D178914D5
:102DE00038F4B60180E390E00E942D179A94F7CF53
:102DF0008A94F301E80DF11D8081B60190E00E94F4
:102E00002D178110F5CF222009F442CEB60180E2C1
:102E100090E00E942D172A94F6CFF60186819781C3
:102E200002C08FEF9FEF2B96E2E10C94E317FC01B9
:102E30000590615070400110D8F7809590958E0FE5
:102E40009F1F0895FC016150704001900110D8F758
:102E5000809590958E0F9F1F08950F931F93CF938A
:102E6000DF93FB01238121FD03C08FEF9FEF2CC077
:102E700022FF16C0468157812481358142175307AE
:102E800044F4A081B1819D012F5F3F4F31832083A6
:102E90008C93268137812F5F3F4F3783268314C061
:102EA0008B01EC01FB010084F185E02D0995892B54
:102EB000E1F6D80116968D919C9117970196179679
:102EC0009C938E931697CE01DF91CF911F910F9116
:102ED0000895FA01AA27283051F1203181F1E894B0
:102EE0006F936E7F6E5F7F4F8F4F9F4FAF4FB1E0FD
:102EF0003ED0B4E03CD0670F781F891F9A1FA11DF8
:102F0000680F791F8A1F911DA11D6A0F711D811DF8
:102F1000911DA11D20D009F468943F912AE0269FBD
:102F200011243019305D3193DEF6CF010895462F1C
:102F30004770405D4193B3E00FD0C9F7F6CF462FFD
:102F40004F70405D4A3318F0495D31FD4052419366
:102F500002D0A9F7EACFB4E0A69597958795779523
:102F60006795BA95C9F700976105710508959B01AA
:102F7000AC010A2E06945795479537952795BA9533
:102F8000C9F7620F731F841F951FA01D08952F920C
:102F90003F924F925F926F927F928F929F92AF92E9
:102FA000BF92CF92DF92EF92FF920F931F93CF9336
:102FB000DF93CDB7DEB7CA1BDB0B0FB6F894DEBFCD
:102FC0000FBECDBF09942A88398848885F846E84F3
:102FD0007D848C849B84AA84B984C884DF80EE803D
:102FE000FD800C811B81AA81B981CE0FD11D0FB646
:102FF000F894DEBF0FBECDBFED010895F894FFCF6A
:1030000052656C69536F7572636520545420536325
:103010006F726520426F6172642C20506F77657209
:103020006564206279204669726D7761726520540B
:1030300065616D21008040201008040201253032B6
:10304000757C253032752C253032757C25303275F3
:0C30500000253032753A25303275000042
:00000001FF
