:100000000C94B8060C94E0060C9410110C94E006C5
:100010000C94E0060C94E0060C94E0060C94861414
:100020000C94E0060C94E0060C94E0060C94E006B8
:100030000C94E0060C94E0060C94E0060C94E006A8
:100040000C94330F0C94E0060C94E0060C94E0063C
:100050000C94E0060C94E0060C94E0060C94E00688
:100060000C94E0060C94E00630860A102060000331
:10007000070B090E0B030505060903050304080613
:1000800008080908080808080303090809080C0CEF
:1000900009090909080A0A03090C080C0A0A090ACD
:1000A0000A090B0A0C100C0B0905040508080309C2
:1000B0000909090906090903040A030D09090909BF
:1000C00006080609090F0B09070602060908FEFEC5
:1000D000FE1D1D1D1E1E1E001E1E1E000000000017
:1000E00000003030F0FE3E3030F0FE3E30061E1F85
:1000F0000706061E1F070606387CFEE6FFC6CE8CE6
:100100000C040C1C183F191F0F073C7E42427E3C1A
:100110008060108C82808000000000100C020100C2
:100120000F1F10101F0F00809CFEFEE6BE3E9C803D
:1001300080070F1F1918191F0F0F1F1D1E1E1E00ED
:100140000000E0F8FC1E020F3F7FF080021EFCF86A
:10015000E080F07F3F0F08683E3E68080000000026
:100160000000C0C0C0F8F8F8C0C0C00101010F0F06
:100170000F010101000000DC7C3C80808080800356
:10018000030303030000001C1C1C008078061807F2
:100190000000F8FCFE0606FEFCF8070F1F18181FEB
:1001A0000F07607038FEFEFE0000001F1F1F181CA6
:1001B0001E0686FEFC78181C1E1F1B191818081C2A
:1001C0001EC6C6FEFC38060E1E18181F0F0780C07C
:1001D000F0381CFEFEFE0003030303031F1F1F0372
:1001E000F0FEFE6666E6C686060E1E18181F0F078E
:1001F000F0FCFE4666EECE8C030F1F18181F0F078B
:1002000006060686E6F61E0600001C1F1F010000FB
:1002100038FCFEC6C6FEFC38070F1F18181F0F0754
:1002200078FCFE8686FEFCF0040C1D19181F0F03D7
:100230007070701C1C1C707070DC7C3CE0E0E0F0A6
:100240007070703838030303070707070E0E7070CD
:100250007070707070700707070707070707383856
:10026000707070F0E0E0E00E0E070707070303036D
:10027000181C9EC6E6FE7C3800001D1D1D000000F7
:10028000E018C4F43A0A0AF2FA7C08F00718272F9B
:1002900048484C4F4F2836110080E0F8FE1EFEF80B
:1002A000E08000001C1F0F07060606070F1F1C102A
:1002B000FEFEFEC6C6FEBC98001F1F1F1818181FA2
:1002C0000F07F0FCFC0E060E1E1C08030F1F1C1867
:1002D0001C1F0E06FEFEFE06060EFEFCF01F1F1F74
:1002E00018181C1F0F03FEFEFEC6C6C6C6C6061F94
:1002F0001F1F181818181818FEFEFEC6C6C6C60618
:100300001F1F1F0000000000F0FCFC0E06C6CEDE22
:10031000DCC8030F0F1C18181C1F0F0FFEFEFEC0B9
:10032000C0C0C0FEFEFE1F1F1F000000001F1F1FD9
:10033000FEFEFE1F1F1F000000000000FEFEFE0666
:100340000F1F1C18181F0F07FEFEFEC0E0F0F8DCA0
:100350000E0602001F1F1F00000001071F1E1810BD
:10036000FEFEFE00000000001F1F1F1818181818BE
:10037000FEFEFE3EF88080F83EFEFEFE1F1F1F00C0
:10038000031F1F03001F1F1FFEFEFE7CF0E080FE08
:10039000FEFE1F1F1F0001030F1F1F1FF0FCFC0E9E
:1003A00006060EFCFCF0030F0F1C18181C0F0F03A1
:1003B000FEFEFEC6C6C6FE7E3C1F1F1F00000000DC
:1003C0000000F0FCFC0E06060EFCFCF0030F0F1CF8
:1003D000181E1C1F1F33FEFEFEC6C6C6FE7E3C0056
:1003E0001F1F1F0000030F1F1C10387CFEE6E6EEE7
:1003F000DEDC98060E1E1C18191F0F0706060606DF
:10040000FEFEFE06060606000000001F1F1F00007D
:100410000000FEFEFE00000000FEFEFE070F1F1C97
:1004200018181C1F0F071EFEFCF0800080F0FCFE59
:100430001E020000031F1F1C1F1F03000000FEFE02
:10044000F80080F8FE3EFEF88000F8FEFE06000F81
:100450001F1F1F07010001071F1F1F0F0000061E9F
:100460003CF8F0E0F0F83C1E0602181E0F070301EE
:1004700003070F1E1810020E1E7EF8E0F87E1E0EF7
:1004800002000000001F1F1F00000000000606C63B
:10049000E6F63E1E0E1C1E1F1B1918181818FEFE2D
:1004A000FE0606FFFFFFC0C00678800000000718A8
:1004B0000606FEFEFEC0C0FFFFFF40707C1E1E7CD5
:1004C000704000000000000000000000000000007C
:1004D0000000404040404040404002060400000010
:1004E00040607030B0B0F0F0E00E1F1F1B19091F04
:1004F0001F1FFEFEFE603030F0E0C01F1F1F0C18F3
:10050000181F0F07C0E0F0703030706040070F1FF9
:100510001C18181C0C04C0E0F0303060FEFEFE0712
:100520000F1F18180C1F1F1FC0E0F0B0B0B0F0E094
:10053000C0070F1F1D19191D0D0530FCFEFE3636B4
:10054000001F1F1F0000C0E0F0303060F0F0F047E7
:10055000CFDFD8D8CCFF7F3FFEFEFE203030F0F05A
:10056000E01F1F1F0000001F1F1FF6F6F61F1F1FB2
:1005700000F6F6F6C0FFFF7FFEFEFEC0E0F0F030B2
:1005800010001F1F1F0301071F1E1C10FEFEFE1F71
:100590001F1FF0F0F02030F0F0E02030F0F0E01F0E
:1005A0001F1F00001F1F1F00001F1F1FF0F0F02063
:1005B0003030F0F0E01F1F1F0000001F1F1FC0E0C1
:1005C000F0703070F0E0C0070F1F1C181C1F0F07E1
:1005D000F0F0F0603070F0E0C0FFFFFF0C18181F63
:1005E0000F07C0E0F0303060F0F0F0070F1F181870
:1005F0000CFFFFFFF0F0F02030101F1F1F00000065
:10060000E0F0F09090B0302008191B13131F1F0E5C
:1006100030FCFCFE3030000F1F1F1818F0F0F00007
:100620000000F0F0F00F1F1F1818081F1F1F10F018
:10063000F0C000E0F0F0100000071F1C1F070000D2
:1006400010F0F0E00000F0F0F00000E0F0F010003A
:1006500000071F1E0F0300030F1E1F0700001030AE
:1006600070E0C080C0E070301010181E0F07030744
:100670000F1E181010F0F0C000C0F0F030C0C0C75E
:10068000FFFC3F0F0100303030F0F0F0301C1E1F37
:100690001B1918180000FCFEFE0603037FFFFCC0B8
:1006A000FEFEFFFF06FEFEFC0000C0FCFF7F030312
:1006B000C0E0E0E0E0C0C0C0E001000000010101D6
:1006C0000100F8080808080808F81F10101010109A
:1006D000101F000005072060000000000000005F00
:1006E00000000007000700147F147F14242A7F2ACB
:1006F0001223130864623649552250000503000096
:10070000001C2241000041221C00082A1C2A080863
:10071000083E08080050300000080808080800607B
:1007200060000020100804023E5149453E00427F0F
:10073000400042615149462141454B311814127F16
:100740001027454545393C4A49493001710905039F
:100750003649494936064949291E00363600000007
:1007600056360000000814224114141414144122B7
:100770001408000201510906324979413E7E1111E7
:10078000117E7F494949363E414141227F41412204
:100790001C7F494949417F090901013E41415132CC
:1007A0007F0808087F00417F41002040413F017FD2
:1007B000081422417F404040407F0204027F7F04B2
:1007C00008107F3E4141413E7F090909063E4151E3
:1007D000215E7F09192946464949493101017F01B6
:1007E000013F4040403F1F2040201F7F2018207FB6
:1007F00063140814630304780403615149454300FA
:10080000007F4141020408102041417F00000402A2
:1008100001020440404040400001020400205454C2
:1008200054787F4844443838444444203844444849
:100830007F3854545418087E090102081454543C5B
:100840007F0804047800447D40002040443D0000BF
:100850007F10284400417F40007C041804787C0805
:1008600004047838444444387C14141408081414DC
:10087000187C7C080404084854545420043F444025
:10088000203C4040207C1C2040201C3C4030403C10
:1008900044281028440C5050503C4464544C4400AC
:1008A0000836410000007F000000413608000808BB
:1008B0002A1C08081C2A08081E6C0A0E2060000169
:1008C0000308070A080103030507010401040606DB
:1008D00006060706060606060101060606060D09B7
:1008E0000708080707090701050807090709070995
:1008F00008070707090D080908020402050802068F
:100900000605060604060601020601090606060695
:100910000405040607090607060301030707FE147A
:100920001E001E0000009090F89690F89690001C13
:1009300000001C000000182422FF4242840810100E
:100940003C1008041C22221CC0308C424080000055
:10095000100C00000C10100C805C2262920C8000C5
:100960000C101010100C08101E00F00C021C6080FF
:10097000020CF080601C04140E140400000000003F
:10098000404040F84040400000000C000000007073
:100990008080808000000000001000C0380618042D
:1009A0000000FC02020202FC0C101010100C0804E3
:1009B000FE00000000101C1000000C020282423CED
:1009C0001018141010100C02222222DC0C1010102F
:1009D000100C8040300804FE0004040404041C00D1
:1009E0003816121212E20C1010101804F8442222C9
:1009F00022C40C101010100C020202E21A060000B1
:100A00001C000000DC22222222DC0C101010100C32
:100A10003C42424222FC08101010080408100870E2
:100A200040A0A010100800000004040890909090CE
:100A30009090000000000000081010A0A0400804E2
:100A4000040000000C028242221C0000140000007E
:100A5000E01804C422121212A2720408F00C3040F2
:100A60004C909090889C90504C200080E09C829C00
:100A7000E08000180400000000000418FE2222227A
:100A80002222DC1C10101010100CF80402020202CA
:100A900004080408101010100804FE0202020202EA
:100AA00004F81C10101010100804FE22222222222A
:100AB000221C101010101010FE2222222222021CD2
:100AC000000000000000F804020202424244C80490
:100AD0000810101010100804FE2020202020FE1CFA
:100AE00000000000001CFE1C00000000FE0C1010A6
:100AF000100CFE804020508804021C0000000004FE
:100B00000810FE0000000000001C10101010101053
:100B1000FE0C30C000C0300CFE1C000004180400A5
:100B2000001CFE0418608000FE1C00000004081C6D
:100B3000F804020202020204F80408101010101057
:100B40000804FE42424242423C1C000000000000F9
:100B5000F804020202020204F8040810101014083B
:100B60001C10FE424242C242423C1C0000000004F3
:100B700008101C22222242428C0C10101010100C63
:100B8000020202FE0202020000001C000000FE0041
:100B900000000000FE040810101008040618608011
:100BA00000806018060000000418040000000638E9
:100BB000C000C03C023CC000C0380600000418045D
:100BC0000000000418040000020C906060900C0209
:100BD000100C000000040C1002041820C02018049F
:100BE00002000000001C0000000000028242221AE5
:100BF00006021018141010101010FE02FC800638A7
:100C0000C0000000041802FE80FC201C021C200012
:100C100000000000000000000000000080808080D4
:100C200080808080020400001088484848F00C1042
:100C30001010081CFE10080808F01C081010100CFA
:100C4000F0080808100C10101008F008080810FE32
:100C50000C101010081CF048484848700C10101078
:100C6000100808FC0A0A001C0000F008080810F828
:100C70004C909090887CFE10080808F01C00000042
:100C8000001CFA1C00FA807CFE8040A010081C00AA
:100C900000000C10FE1CF8100808F0100808F01CEA
:100CA0000000001C0000001CF810080808F01C00E0
:100CB0000000001CF008080808F00C101010100CC0
:100CC000F810080808F0FC081010100CF0080808CC
:100CD00010F80C10101008FCF81008081C00000098
:100CE0003048484890081010100C08FE0808001CF6
:100CF0001010F800000000F80C101010081C18600C
:100D000080008060180000041804000018E000E073
:100D100018E000E01800041804000418040008306B
:100D2000C0C03008100C00000C10186080008060FB
:100D30001800808C700C00000808886818081018CB
:100D400014101010807C02007C80FEFC027C8080ED
:100D50007C00402020604040200000000000000097
:100D6000FC0404040404FC1C10101010101CAC142F
:100D700011241FBECFEFD8E0DEBFCDBF11E0A0E051
:100D8000B1E0E0ECFFE202C005900D92AC35B10796
:100D9000D9F722E0ACE5B1E001C01D92AC3EB2074C
:100DA000E1F716E0C8EBD6E004C02197FE010E94EF
:100DB000E714C73BD107C9F70E94B3140C94DE17A0
:100DC0000C9400000F93FC01E55BFE4F3081A0E224
:100DD0003A9FF00111246E177F0708F0A7C0FC01AD
:100DE000E45BFE4FE081B0E1EB9FF00111244E1770
:100DF0005F0708F09BC0FB01EF71FF27DA01B29596
:100E0000A295AF70AB27BF70AB27769567957295AB
:100E100062956F7067277F7067273A9F600D112476
:100E2000DF0130E2639FA00DB11D1124BD01FC0163
:100E3000E35BFE4FE081F0E0EE0FFF1FEE0FFF1FC0
:100E40004F705527E49FD001E59FB00DF49FB00D82
:100E50001124AB015695479556954795569547955C
:100E60004A0F5B1F67707727FB01EB5CFE4F3081F9
:100E7000223071F128F4222349F02130C1F056C00C
:100E80002330E1F1243009F443C050C0013041F473
:100E9000FC01E40FF51F309520813223308346C0DA
:100EA000FC01E40FF51F9081392B30833FC0011105
:100EB00008C0FC01E40FF51F3095208132233083F8
:100EC00035C0FC01E40FF51F9081392B30832EC013
:100ED000013061F5FC01E40FF51F2081632F6223CF
:100EE00031F4FC01E40FF51F322B30831FC0FC01ED
:100EF000E40FF51F30952323208318C00130B1F48F
:100F0000FC01E40FF51F30952081322330830EC0A1
:100F1000013061F4FC01E40FF51F2081632F62238F
:100F200029F4FC01E40FF51F322B30830F91089553
:100F3000662369F0FC01E35BFE4F408120E4429FA1
:100F4000A00111246FEF70E00E94ED140895FC01E0
:100F5000E35BFE4F408120E4429FA001112460E04A
:100F600070E00E94ED140895CF93DF93EC01FC0133
:100F7000E55BFE4F608331964083649F402D1124D2
:100F80003196408350E03196CA0182959295907FC8
:100F90009827807F9827918380833296CA01880F93
:100FA000991F82959295907F9827807F98279183AB
:100FB00080833296440F551F440F551FBA01660FA8
:100FC000771F460F571F440F551F440F551F51835E
:100FD00040833296108260E085E691E00E94840FA3
:100FE00060E085E691E00E948E0F64E085E691E086
:100FF0000E94930F85E691E00E947D0F2A9A2B9A1A
:101000003B9A3C9A259A3D9A239A219A61E0CE0117
:101010000E949807DF91CF9108952F923F924F92AF
:101020005F926F927F928F929F92AF92BF92CF9278
:10103000DF92EF92FF920F931F93CF93DF9300D035
:1010400000D000D0CDB7DEB79A8389836B015E8371
:101050004D833C832B8318011E2D7101E41AF50A80
:101060002901461A570AFF203CF4F194E194F10853
:1010700088248A94982C03C088248394912C55202A
:101080003CF4519441945108AA24AA94BA2C03C068
:10109000AA24A394B12CEE0CFF1C440C551C01E0B7
:1010A000212F4D815E81B60189819A810E94E206DD
:1010B000E414F5044CF5C201959587953701681A3B
:1010C000790A8B819C818C159D0509F443C077209A
:1010D00044F08D819E81880D991D9E838D836418B7
:1010E0007508CA0CDB1C6E0C7F1C01E0212F4D81A2
:1010F0005E81B60189819A810E94E2068B819C8182
:101100008C159D0521F726C0C7019595879532015D
:10111000681A790A8D819E8128163906D9F07720C0
:1011200024F0CA0CDB1C6E187F088D819E81880D0F
:10113000991D9E838D83640C751C01E0212FAC01E9
:10114000B60189819A810E94E2068D819E812816CE
:10115000390629F726960FB6F894DEBF0FBECDBF2D
:10116000DF91CF911F910F91FF90EF90DF90CF9083
:10117000BF90AF909F908F907F906F905F904F90B7
:101180003F902F9008956F927F928F929F92AF928F
:10119000BF92CF92DF92EF92FF920F931F93CF9364
:1011A000DF933C01EB014A0169015801FE2C26172F
:1011B000370764F0EF2C85019E01A401BE01C30135
:1011C0000E940D082196CC16DD06A4F7DF91CF9181
:1011D0001F910F91FF90EF90DF90CF90BF90AF9055
:1011E0009F908F907F906F9008956F927F928F92D3
:1011F0009F92AF92BF92CF92DF92EF92FF920F93A6
:101200001F93CF93DF93FC01E35BFE4FE080F12C53
:10121000FE2CEE24FF0C3297C08120E2C29FE00139
:101220001124E114F10409F4B3C0162F6C01612CF0
:10123000712C882499248C1A9D0A5E0181E0A81AD9
:10124000B1081130C9F138F0123009F466C013301A
:1012500009F474C086C0AA24BB24AC1ABD0A4E018E
:1012600021E0821A9108CE0186219721892B89F4E9
:10127000C50186219721BE010E94BF14AB01062D36
:10128000017020E0B40166217721C6010E94E206C8
:1012900078C0830181E008270170C501862197216C
:1012A000BE010E94BF14AB0120E0B401662177218A
:1012B000C6010E94E20665C0AA24BB24AC1ABD0A7E
:1012C0004E0121E0821A9108CE0186219721892BB7
:1012D00099F4830181E008270170C50186219721D7
:1012E000BE010E94BF14AB0120E0B401662177214A
:1012F000C6010E94E2063DC0C50186219721BE01BC
:101300000E94BF14AB01062D017020E0B4016621DC
:101310007721C6010E94E2062CC0C40186219721D4
:10132000BE010E94BF14AB01062D017020E0B50183
:1013300066217721C6010E94E20613C0C30121E0A5
:101340008227082F0170C40186219721BE010E94C7
:10135000BF14AB0120E0B50166217721C6010E94D0
:10136000E2068FEF681A780AE614F70409F069CFED
:101370000FC02FEF621A720A6E147F0408F4A4CF14
:1013800007C08FEF681A780A6E147F0408F46BCFD9
:10139000DF91CF911F910F91FF90EF90DF90CF9051
:1013A000BF90AF909F908F907F906F9008956F92B5
:1013B0007F928F929F92AF92BF92CF92DF92EF92E5
:1013C000FF920F931F93CF93DF937C01FC01E35BAC
:1013D000FE4F808190E0880F991F880F991F3796E4
:1013E0002081289F6001299FD00C1124181619060E
:1013F0000CF044C0E701CC0DDD1DC80ED91ECE0C8B
:10140000DF1C57018EEAA81A8EEFB80A4701A0EB3D
:101410008A1AAEEF9A0A3701B2EB6B1ABEEF7B0A5B
:10142000D501ED91FC918E010E191F09EC0FFD1FE6
:10143000608185E691E00E94A20FD401ED91FC91BC
:10144000EE0DFF1DE00FF11F608185E691E00E9427
:10145000A20FF301808191818E0D9F1DFC01E00F91
:10146000F11F608185E691E00E94A20F699185E6F7
:1014700091E00E94A20FCC15DD0591F62998459ABE
:101480004598F701EC5AFE4F8081813071F028F0C9
:10149000823099F08330C9F01EC044984398F70118
:1014A000EC5AFE4F81E0808316C04498439AF701BE
:1014B000EC5AFE4F82E080830EC0449A4398F701B5
:1014C000EC5AFE4F83E0808306C0449A439AF701AA
:1014D000EC5AFE4F1082299ADF91CF911F910F9104
:1014E000FF90EF90DF90CF90BF90AF909F908F9044
:1014F0007F906F900895875B9E4FFC01718360839E
:101500000895603209F46EE6FC01E75BFE4F20812E
:101510003181F901349694913196E4916917A8F0DC
:10152000462F50E0F0E0E90FF11D4E175F0784F4FD
:10153000691BF9018491811112C03196E491EE2367
:1015400051F00DC08E2F90E0089580E090E0089556
:1015500080E090E00895F9013296E491F3CFE62F10
:10156000F0E03696E20FF31FE491ECCF2F923F921A
:101570004F925F926F927F928F929F92AF92BF92A3
:10158000CF92DF92EF92FF920F931F93CF93DF934F
:10159000CDB7DEB764970FB6F894DEBF0FBECDBFF0
:1015A000FC01E55BFE4FE08130E2E39FF001112496
:1015B000E617F7070CF430C1FC01E45BFE4FE08155
:1015C000A0E1EA9FF0011124E417F5070CF429C10A
:1015D0000D831A017B876A879C838B83FC01E75B01
:1015E000FE4F60817181FB01339644902032B9F443
:1015F00060E20E94810A6C018101040D111D2A859F
:101600003B85280F391FEE24E394A1016A857B8571
:101610008B819C810E94C308DF82CE822AC1FB019C
:101620003496349131961491231708F4FFC0422F59
:1016300050E0812F90E0830F911D481759070CF05F
:10164000F8C0512CA201495F5F4FCA0199230CF4E5
:101650000796959587959595879595958795231BDD
:10166000FB0134913111E8C03196E491EE2309F485
:10167000F2C0E2C03491A30FB11D3196E417F50713
:10168000C9F702C0A0E0B0E08A9FA0018B9F500D77
:101690001124E12FF0E036964E0F5F1F30E0F90184
:1016A0003696E60FF71FE491EE2EF12CFF82EE82C4
:1016B00097013195219531096A857B8562177307FA
:1016C0000CF4D7C0222733272419350922163306F4
:1016D0000CF4CFC0EE2309F4CCC08C879B012F5FA4
:1016E0003F4FE1507901EE0EF11CF88AEF867A83C4
:1016F00069832B813C81275B3E4F398728877A019C
:10170000E61AF70AFA8AE98A99279C0121503109D9
:101710003B872A87A201485051095E874D871C8567
:1017200011501E3F08F06CC069887A88E980FA8001
:101730006E0C7F1C812F90E0EE80FF80E89EF00110
:10174000E99EF00DF89EF00D1124E60DF71DA88519
:10175000B9858D909C90E80DF91DE4915C01AA0C6F
:10176000BB1CAA0CBB1CAA0CBB1CEA84FB848E15F8
:101770009F0531F42C85223028F0CD84DE8403C00F
:10178000650101C065017601C20CD31C1C8A1B8A4D
:101790008E2E912C2B89EA14FB04F4F04E145F0476
:1017A000DCF0C40102C0959587952A95E2F780FF89
:1017B0000AC001E02D81A60169817A818B819C811B
:1017C0000E94E20609C000E02D81A60169817A81AC
:1017D0008B819C810E94E2066B897C896F5F7F4FC1
:1017E0007C8B6B8B7FEFE71AF70A8FEFC81AD80A4A
:1017F000AB89BC89189771F611501E3F08F49ACF37
:10180000E981FA813196FA83E983EF84F888EE164C
:10181000FF0609F084CF2DC02FEF3FEF3F832E83CB
:1018200028C04FEF5FEF5F834E8323C01F821E826D
:1018300020C01F821E821DC0222309F423CFFB017A
:1018400036964FEF420F50E0495F5F4F460F571FEC
:10185000A0E0B0E00FCFFB013296E491829F9001AF
:101860001124E29FA001E39F500D11244A5F5F4FB6
:101870001BCF8E819F8164960FB6F894DEBF0FBE9A
:10188000CDBFDF91CF911F910F91FF90EF90DF902F
:10189000CF90BF90AF909F908F907F906F905F9010
:1018A0004F903F902F9008952F923F924F925F92CA
:1018B0006F927F928F929F92AF92BF92CF92DF9260
:1018C000EF92FF920F931F93CF93DF9300D000D03E
:1018D00000D0CDB7DEB7FC01E55BFE4FE081A0E2B2
:1018E000EA9FF00111246E177F070CF082C0FC0103
:1018F000E45BFE4FE081B0E1EB9FF00111244E1755
:101900005F070CF076C0FC01E75BFE4F0190F081B1
:10191000E02D3396E491DA01AE0FB11DBC83AB83A9
:10192000BB230CF466C0FE2C098319015A016B011C
:101930002C0161507109EE24E3948D019B010E94FA
:101940000D08B981BB2309F454C041012B0E311C91
:101950001E821D823201E5EB6E1AEEEF7E0A9201C5
:10196000245B3E4F3A832983D4012D914D010F2DE5
:10197000A5016D817E816C0D7D1DC2010E94B60A9C
:1019800018161906CCF4ED81FE81E80FF91FFE83CD
:10199000ED83BF016C0D7D1DEE24E3940B811C8152
:1019A0009B01A501C2010E940D082D813E812F5F80
:1019B0003F4F3E832D8302C09923DCF0D3018C91ED
:1019C000B0E28B9FC00111242D813E812C0D3D1D65
:1019D0002817390774F4E981FA818081F0E18F9F3B
:1019E000C0011124A816B90624F48214930409F046
:1019F000BBCF26960FB6F894DEBF0FBECDBFDF91EA
:101A0000CF911F910F91FF90EF90DF90CF90BF90FB
:101A1000AF909F908F907F906F905F904F903F908E
:101A20002F9008952F923F925F926F927F928F92A4
:101A30009F92AF92BF92CF92DF92EF92FF920F935D
:101A40001F93CF93DF936C01542E19013801FC01D1
:101A5000EF5BFE4F11821082842E912C1814190412
:101A600004F58C01005C1F4FC62FD72F540180E472
:101A7000A80EB11CAC0CBD1C7F01FE018991D801E0
:101A80008D938D016081C6010E94810A0196F70144
:101A900020813181820F931F918380830A151B055A
:101AA00061F7F601E75BFE4F0190F081E02D339680
:101AB0008491F601ED5BFE4F90E0918380838C0C66
:101AC0009D1CF401E05CFF4F1082F601E95BFE4FC4
:101AD00071826082329731822082359750829601DE
:101AE000205C3F4FE12C052DA301B101C6010E94EE
:101AF000540CDF91CF911F910F91FF90EF90DF90E9
:101B0000CF90BF90AF909F908F907F906F905F909D
:101B10003F902F9008958F929F92AF92BF92CF9255
:101B2000DF92EF92FF920F931F93CF93DF93EC011D
:101B30008B017A01FC01EB5BFE4F80819181860F66
:101B4000971F91838083329620813181240F351F26
:101B50003183208336972081318131952195310958
:101B60008217930794F43496DE01A55BBE4F8C91E7
:101B700020E2829FC00111249183808361E0CE0125
:101B80000E949807BB24B39416C0FE01E55BFE4F8C
:101B9000408160E2469FA00111244817590754F480
:101BA00036973183208361E0CE010E949807BB24E1
:101BB000B39401C0B12CFE01E95BFE4F408151811D
:101BC00034978081918191958195910948175907A2
:101BD00094F43496DE01A45BBE4F8C9120E1829F89
:101BE000C00111249183808361E0CE010E94980797
:101BF000BB24B39414C0FE01E45BFE4F208160E17E
:101C0000269F90011124241735074CF435979183B2
:101C1000808361E0CE010E949807BB24B394EF2833
:101C200009F0EBC00F3F8FEF180709F078C0FE01F5
:101C3000E35BFE4FE080E0E4EE9E700111241E1491
:101C40001F045CF5FE01E55BFE4F008110E0000F14
:101C5000111F000F111F6801F1E0CF1AD108FE011A
:101C600020E030E0C901B8010E94D3148C159D0515
:101C700029F48081880F8F5F808309C08081982F2D
:101C8000990F8181881F8827881F890F80832F5F84
:101C90003F4F31962E153F0529F7FE01EB5BFE4FB6
:101CA000E080F18035978081882309F4BAC0A12CA7
:101CB0006E0125EBC21A2EEFD20A4F010A2D10E059
:101CC000FE01E00FF11FE05CFF4F6081CE010E943A
:101CD000810AAC014E0D5F1DF6012081F0E22F9FBD
:101CE00090011124421753078CF00C0F1D1FF801AF
:101CF000E05CFF4FDE01A95BBE4F4D915C9100E0BF
:101D00002081B701CE010E94B60A8BC00196E80E71
:101D1000F91EA394F4018081A81680F282C00130DC
:101D2000110509F06AC0FE01E35BFE4FE08120E48B
:101D3000E29FF00111249F012150310942F1DE019F
:101D4000A55BBE4F0C9110E0000F111F000F111F7B
:101D50003297EC0FFD1FC901B8010E94D314892BE3
:101D600029F481818695805881830AC08181482F1A
:101D70004695908150E8959FC0011124840F81837E
:101D80002150310931972F3F6FEF360721F7FE01C0
:101D9000EB5BFE4FE080F18035978081882309F46A
:101DA00040C0912C8F01C92CD12CFE01EC0DFD1DE2
:101DB000E05CFF4F6081CE010E94810A9C012E0DE4
:101DC0003F1D33238CF0CC0EDD1EF601E05CFF4F8F
:101DD000DE01A95BBE4F4D915C9100E02081B7010F
:101DE000CE010E94B60A1DC00196E80EF91E93941A
:101DF000F80180819816B8F214C0FE01E05CFE4F35
:101E00009E01205C3F4FDE01A95BBE4F4D915C916E
:101E1000119712976D917C91E12C0081CE010E9467
:101E2000540C8B2DDF91CF911F910F91FF90EF906C
:101E3000DF90CF90BF90AF909F908F90089583E0F8
:101E400084BD91E090936E0085BD789408952FB77E
:101E5000F8946091600170916101809162019091AC
:101E600063012FBF08951F920F920FB60F92112496
:101E70002F933F938F939F93AF93BF938091600174
:101E800090916101A0916201B09163013091640170
:101E900023E0230F2D3720F40196A11DB11D05C0AD
:101EA00026E8230F0296A11DB11D209364018093A3
:101EB000600190936101A0936201B09363018091EE
:101EC0005C0190915D01A0915E01B0915F0101966E
:101ED000A11DB11D80935C0190935D01A0935E01F3
:101EE000B0935F01BF91AF919F918F913F912F91DF
:101EF0000F900FBE0F901F9018958CB580618CBD10
:101F00008CB580648CBD0895613021F48CB58062FD
:101F10008CBD08958CB58F7D8CBD08958CB5837F65
:101F2000682B6CBD08958CB58C7F962F9370892B90
:101F30008CBD9DB562FB882780F9692F6E7F682B69
:101F40006DBD08956EBD0DB407FEFDCF8EB508952D
:101F50008AB18B718AB953988BB1846E8BB95B9AB5
:101F6000E9E6F0E0808184608083E99A08950F9328
:101F70001F930E94270F009171011091720120910F
:101F8000730130917401061717072807390788F580
:101F90008091E102823021F481E08093700119C0C8
:101FA000EEE6F1E080818F5F8083928181E0911184
:101FB00080E0EEE6F1E0828380818C3320F0818145
:101FC0008F5F8183108280916F018C3310F01092AB
:101FD0006F010E94270FDC01CB0188519C4FAF4F4E
:101FE000BF4F8093710190937201A0937301B093DE
:101FF00074018091670182FF17C0E6E6F1E08181FC
:102000008B7F818300008091DE02813069F48091B2
:10201000E102823048F4E091E202F091E302808133
:102020008F5F80830E94D2118091670186FF17C065
:10203000E6E6F1E081818F7B818300008091DE0202
:10204000813069F48091E102823048F4E091E40249
:10205000F091E50280818F5F80830E94D211809190
:102060006701882354F5E6E6F1E081818F7781836B
:102070000000EEEDF2E0A481B5811C92A681B7814B
:102080001C92AEE6B1E011961C9211971C92A481AD
:10209000B58111969C910680F781E02D8181890F91
:1020A00080FD03C01092E00203C081E08093E00253
:1020B000EEEDF2E082E0808713828091670185FF78
:1020C0002AC0E6E6F1E081818F7D81830000EEED9C
:1020D000F2E080818F5F80838330D8F0E091E2026C
:1020E000F091E302808181110EC0A091E402B091D1
:1020F000E5028C91811107C08181811104C0119684
:102100008C91882321F081E08093DE0202C010923E
:10211000DE021092DF0280916801882304F5E6E672
:10212000F1E082818F7782830000EEEDF2E0A481FE
:10213000B5811C92A681B7811C92A481B5811196AC
:102140001C92A681B78111961C92AEE6B1E0119661
:102150001C9211971C92128282E0808713828091D8
:10216000680185FF27C0E6E6F1E082818F7D8283EA
:1021700000008091E002811104C081E08093E002C0
:1021800004C0813011F41092E002EEEDF2E084819F
:102190009581268137813583248397838683808543
:1021A000811104C081E08093E60204C0813011F403
:1021B0001092E60280916601882379F19091660180
:1021C00089B1847E981329C00E94270F00916A016B
:1021D00010916B0120916C0130916D01061717076A
:1021E00028073907D0F4E6E6F1E083818F5F838327
:1021F000843018F08081828310820E94270FDC01D6
:10220000CB018C509E4FAF4FBF4F80936A0190938C
:102210006B01A0936C01B0936D011F910F91089514
:102220001F920F920FB60F9211242F933F934F934B
:102230005F936F937F938F939F93AF93BF93CF934E
:10224000DF93EF93FF934B9B12C089B1847EC6E668
:10225000D1E088830E94270FDC01CB018C509E4F78
:10226000AF4FBF4F8C839D83AE83BF8309C08091E6
:102270006601882329F0E6E6F1E0808181831082FF
:102280000000FF91EF91DF91CF91BF91AF919F91AE
:102290008F917F916F915F914F913F912F910F900F
:1022A0000FBE0F901F9018950F93CF93EEEDF2E0B5
:1022B00087E791E09583848385E791E09783868320
:1022C00060E089E891E00E94980782E08093B00086
:1022D000809370008FE18093B30087E08093B1001A
:1022E0002FEF83ED90E3215080409040E1F700C054
:1022F000000062E089E891E00E94F5082FEF83ED8D
:1023000090E3215080409040E1F700C0000063E07E
:1023100089E891E00E94F5082FEF83ED90E32150CA
:1023200080409040E1F700C0000060E089E891E063
:102330000E94F5082FEF83ED90E3215080409040FC
:10234000E1F700C0000061E089E891E00E94F50833
:102350002FEF83ED90E3215080409040E1F700C0E3
:10236000000061E089E891E00E94980768EB78E05E
:1023700089E891E00E947B0AC0E300E02C2F40E056
:1023800050E060E070E089E891E00E94B60ACF5F1B
:10239000C93399F761E089E891E00E949807CF91ED
:1023A0000F910895E091E202F091E30280818A307A
:1023B00061F4A091E402B091E5028C918A3009F0B9
:1023C00073C081E08093E10204C09091E1029130FA
:1023D000D1F5208130E0A091E402B091E5028C912A
:1023E00090E002962817390744F081818F5F81833E
:1023F000EEEDF2E0108682E08383AEEDB2E0169659
:10240000ED91FC911797208130E014960D90BC91CE
:10241000A02D8C9190E00296281739074CF081810D
:102420008F5F8183EEEDF2E081E0808782E083833D
:102430008091E002811104C081E08093E002089560
:102440001092E00208958B3040F081818F5F81838C
:10245000EEEDF2E0108682E08383E091E402F091F9
:10246000E50280818B3048F081818F5F8183EEEDC2
:10247000F2E081E0808782E08383EEEDF2E0A481E8
:10248000B5819C910680F781E02D8081890F80FDC8
:1024900010C08091E002811104C081E08093E002CD
:1024A00008951092E00208958091E1028130A9F62A
:1024B00090CF0895EF92FF920F931F93CF93DF93E6
:1024C0008091DE02813009F467C020F0823009F487
:1024D0007DC115C28091DF0281112EC061E089E8C3
:1024E00091E00E94980768E670E089E891E00E9418
:1024F0007B0AE0E0F1E001900020E9F73197AF01BD
:102500004050514000E010E02FE130E060E071E029
:1025100089E891E00E94120D0E94270FEEEDF2E093
:10252000DC01CB014E96A11DB11D82879387A48744
:10253000B58781E08183E3C1813009F0E0C10E9469
:10254000270F0091E8021091E9022091EA023091F0
:10255000EB02061717072807390708F0D0C140E03B
:1025600050E06FEF7FEF89E891E00E948B0D8823A8
:1025700019F01092DF02C3C10E94270FDC01CB01CA
:102580004E96A11DB11D8093E8029093E902A0939D
:10259000EA02B093EB02B3C18091DF02811121C046
:1025A00061E089E891E00E94980762ED76E089E8B1
:1025B00091E00E947B0AE12C0FE010E02FE030E078
:1025C00040E050E06FE070E089E891E00E940D0883
:1025D000EEEDF2E0128613861486158681E0818383
:1025E00003C0813009F08BC10E94270F0091E802DF
:1025F0001091E9022091EA023091EB0206171707C9
:102600002807390708F07BC18091E1028230B9F5D3
:102610008091E70291E0811190E09093E7028111AF
:102620002EC08091E602811114C000E020E249E052
:1026300050E061E070E089E891E00E94B60A20E293
:1026400049E050E067E070E089E891E00E94B60A56
:1026500073C08130A1F400E020E249E050E063E182
:1026600070E089E891E00E94B60A20E249E050E07B
:1026700069E170E089E891E00E94B60A5DC0EEED84
:10268000F2E0A681B7810480F581E02D8C911F9244
:102690008F9380811F928F9311968C911F928F93AD
:1026A00081811F928F938DE391E09F938F93C9E770
:1026B000D1E0DF93CF930E94F41400E0298140E041
:1026C00050E064E070E089E891E00E94B60A2C8155
:1026D00040E050E066E170E089E891E00E94B60ACF
:1026E0002E8149E050E061E070E089E891E00E94CD
:1026F000B60A2F8149E050E067E070E089E891E098
:102700000E94B60A298549E050E063E170E089E85B
:1027100091E00E94B60A2A8549E050E069E170E044
:1027200089E891E00E94B60A8DB79EB70C960FB665
:10273000F8949EBF0FBE8DBF8091E00281111BC037
:102740006894EE24E2F801E010E02FE130E040E090
:1027500050E06EE170E089E891E00E94C308E12C4E
:1027600021E030E040E050E060E070E089E891E096
:102770000E94C3081AC06894EE24E2F801E010E059
:1027800021E030E040E050E060E070E089E891E076
:102790000E94C308E12C2FE130E040E050E06EE100
:1027A00070E089E891E00E94C3080E94270FDC01D5
:1027B000CB0188539F4FAF4FBF4F8093E802909358
:1027C000E902A093EA02B093EB0299C08091DF0284
:1027D000811114C061E089E891E00E94980768EBDC
:1027E00078E089E891E00E947B0AEEEDF2E0128643
:1027F00013861486158681E0818303C0813009F039
:102800007EC00E94270F0091E8021091E9022091FA
:10281000EA023091EB02061717072807390708F07C
:102820006EC00F2EFEE6EF2EF1E0FF2EF02DF70129
:10283000908181811F929F931F928F9381E591E0F8
:102840009F938F93C9E7D1E0DF93CF930E94F41455
:1028500000E0288142E050E061E070E089E891E02A
:102860000E94B60A298142E050E068E070E089E801
:1028700091E00E94B60A2B8142E050E061E170E0F5
:1028800089E891E00E94B60A2C8142E050E068E1BC
:1028900070E089E891E00E94B60AF70182812DB7C5
:1028A0003EB7285F3F4F0FB6F8943EBF0FBE2DBF17
:1028B000882359F003E02AE341E050E06FE070E044
:1028C00089E891E00E94B60A0AC004E02AE341E0E8
:1028D00050E06FE070E089E891E00E94B60A0E9443
:1028E000270FDC01CB018C509E4FAF4FBF4F809321
:1028F000E8029093E902A093EA02B093EB02DF9121
:10290000CF911F910F91FF90EF9008951F920F921A
:102910000FB60F9211242F933F934F935F936F93B2
:102920007F938F939F93AF93BF93EF93FF9389E828
:1029300091E00E94D709FF91EF91BF91AF919F91D4
:102940008F917F916F915F914F913F912F910F9058
:102950000FBE0F901F90189541E061E089E891E06B
:102960000E94B40708950E941F0F00000E94541196
:102970000E94A80F0E94B70F0E945A12FBCFAA1BF9
:10298000BB1B51E107C0AA1FBB1FA617B70710F05A
:10299000A61BB70B881F991F5A95A9F7809590958C
:1029A000BC01CD01089597FB072E16F4009407D0C3
:1029B00077FD09D00E94BF1407FC05D03EF4909526
:1029C00081959F4F0895709561957F4F0895EE0F03
:1029D000FF1F0590F491E02D0994DC0101C06D9377
:1029E00041505040E0F70895AEE0B0E0EAEFF4E186
:1029F0000C94B5170D891E8986E08C831A83098390
:102A00008FEF9FE79E838D83AE01475E5F4F6F8997
:102A1000788DCE0101960E941615EF81F885E00FA2
:102A2000F11F10822E96E4E00C94D117ABE0B0E0D9
:102A3000ECE1F5E10C94A7176C017B018A01FC0124
:102A400017821682838181FFCCC1CE0101963C01A1
:102A5000F6019381F70193FD859193FF81917F01A9
:102A6000882309F4BAC1853239F493FD859193FF27
:102A700081917F01853229F4B60190E00E940D1703
:102A8000E7CF912C212C312CFFE1F315D8F08B32BC
:102A900079F038F4803279F08332A1F4232D20616B
:102AA0001DC08D3261F0803369F4232D216016C082
:102AB000832D8260382EE32DE4603E2E2AC0F32D54
:102AC000F8601DC037FC2DC020ED280F2A3040F0E3
:102AD0008E32B9F436FC81C1232D2064322E19C008
:102AE00036FE06C08AE0989E200D1124922E11C059
:102AF000EAE02E9E200D1124222EF32DF0623F2EAF
:102B000008C08C3621F4832D8068382E02C08836A8
:102B100041F4F70193FD859193FF81917F0181112C
:102B2000B3CF982F9F7D9554933028F40C5F1F4F9F
:102B30009FE399830DC0833631F0833771F083357D
:102B400009F059C021C0F801808189830E5F1F4FB1
:102B500088248394912C530113C02801F2E04F0E76
:102B6000511CF801A080B18036FE03C0692D70E0D1
:102B700002C06FEF7FEFC5010E9402174C01820176
:102B8000F32DFF773F2E16C0280122E0420E511C84
:102B9000F801A080B18036FE03C0692D70E002C04C
:102BA0006FEF7FEFC5010E94F7164C01F32DF0681F
:102BB0003F2E820133FC1BC0822D90E088169906BF
:102BC000B0F4B60180E290E00E940D172A94F4CF91
:102BD000F50137FC859137FE81915F01B60190E0E8
:102BE0000E940D1721102A9421E0821A9108811465
:102BF000910471F7E8C0843611F0893641F5F80187
:102C000037FE07C060817181828193810C5F1F4F05
:102C100008C060817181072E000C880B990B0E5F34
:102C20001F4FF32DFF763F2E97FF09C0909580959B
:102C3000709561957F4F8F4F9F4FF0683F2E2AE030
:102C400030E0A3010E944917882E861845C08537B9
:102C500031F4232D2F7EB22E2AE030E025C0932DB3
:102C6000997FB92E8F36C1F018F4883579F0B5C048
:102C7000803719F0883721F0B0C0E92FE061BE2E0F
:102C8000B4FE0DC0FB2DF460BF2E09C034FE0AC097
:102C9000292F2660B22E06C028E030E005C020E1D2
:102CA00030E002C020E132E0F801B7FE07C06081E9
:102CB0007181828193810C5F1F4F06C06081718199
:102CC00080E090E00E5F1F4FA3010E944917882EFD
:102CD0008618FB2DFF773F2E36FE0DC0232D2E7F4D
:102CE000A22E891458F434FE0BC032FC09C0832D87
:102CF0008E7EA82E05C0B82CA32C03C0B82C01C012
:102D0000B92CA4FE0FC0FE01E80DF11D80818033B7
:102D100021F49A2D997EA92E09C0A2FE06C0B39473
:102D2000B39404C08A2D867809F0B394A3FC11C033
:102D3000A0FE06C0B21488F4280C922C9B180EC07A
:102D4000B21460F4B60180E290E00E940D17B394D3
:102D5000F7CFB21418F42B1802C0982C212CA4FE23
:102D600010C0B60180E390E00E940D17A2FE17C0CC
:102D7000A1FC03C088E790E002C088E590E0B601BE
:102D80000CC08A2D867859F0A1FE02C08BE201C0EA
:102D900080E2A7FC8DE2B60190E00E940D17891435
:102DA00038F4B60180E390E00E940D179A94F7CFB3
:102DB0008A94F301E80DF11D8081B60190E00E9434
:102DC0000D178110F5CF222009F442CEB60180E222
:102DD00090E00E940D172A94F6CFF6018681978124
:102DE00002C08FEF9FEF2B96E2E10C94C317FC011A
:102DF0000590615070400110D8F7809590958E0F26
:102E00009F1F0895FC016150704001900110D8F798
:102E1000809590958E0F9F1F08950F931F93CF93CA
:102E2000DF93FB01238121FD03C08FEF9FEF2CC0B7
:102E300022FF16C0468157812481358142175307EE
:102E400044F4A081B1819D012F5F3F4F31832083E6
:102E50008C93268137812F5F3F4F3783268314C0A1
:102E60008B01EC01FB010084F185E02D0995892B94
:102E7000E1F6D80116968D919C91179701961796B9
:102E80009C938E931697CE01DF91CF911F910F9156
:102E90000895FA01AA27283051F1203181F1E894F0
:102EA0006F936E7F6E5F7F4F8F4F9F4FAF4FB1E03D
:102EB0003ED0B4E03CD0670F781F891F9A1FA11D38
:102EC000680F791F8A1F911DA11D6A0F711D811D39
:102ED000911DA11D20D009F468943F912AE0269FFE
:102EE00011243019305D3193DEF6CF010895462F5D
:102EF0004770405D4193B3E00FD0C9F7F6CF462F3E
:102F00004F70405D4A3318F0495D31FD40524193A6
:102F100002D0A9F7EACFB4E0A69597958795779563
:102F20006795BA95C9F700976105710508959B01EA
:102F3000AC010A2E06945795479537952795BA9573
:102F4000C9F7620F731F841F951FA01D08952F924C
:102F50003F924F925F926F927F928F929F92AF9229
:102F6000BF92CF92DF92EF92FF920F931F93CF9376
:102F7000DF93CDB7DEB7CA1BDB0B0FB6F894DEBF0D
:102F80000FBECDBF09942A88398848885F846E8433
:102F90007D848C849B84AA84B984C884DF80EE807D
:102FA000FD800C811B81AA81B981CE0FD11D0FB686
:102FB000F894DEBF0FBECDBFED010895F894FFCFAA
:102FC00052656C69536F7572636520545420536366
:102FD0006F726520426F6172642C20506F7765724A
:102FE0006564206279204669726D7761726520544C
:102FF00065616D21008040201008040201253032F7
:10300000757C253032752C253032757C2530327533
:0C30100000253032753A25303275000082
:00000001FF
